{
  "_format": "hh-sol-artifact-1",
  "contractName": "Faucet",
  "sourceName": "contracts/Faucet.sol",
  "abi": [
    {
      "inputs": [
        {
          "internalType": "address",
          "name": "_token",
          "type": "address"
        },
        {
          "internalType": "uint256",
          "name": "_withdrawalAmount",
          "type": "uint256"
        },
        {
          "internalType": "uint256",
          "name": "_cooldownTime",
          "type": "uint256"
        }
      ],
      "stateMutability": "nonpayable",
      "type": "constructor"
    },
    {
      "anonymous": false,
      "inputs": [
        {
          "indexed": false,
          "internalType": "uint256",
          "name": "id",
          "type": "uint256"
        },
        {
          "indexed": false,
          "internalType": "address",
          "name": "receiver",
          "type": "address"
        },
        {
          "indexed": false,
          "internalType": "uint256",
          "name": "amount",
          "type": "uint256"
        },
        {
          "indexed": false,
          "internalType": "uint256",
          "name": "chainId",
          "type": "uint256"
        },
        {
          "indexed": false,
          "internalType": "uint256",
          "name": "timestamp",
          "type": "uint256"
        }
      ],
      "name": "WithdrawalEvent",
      "type": "event"
    },
    {
      "inputs": [],
      "name": "cooldownTime",
      "outputs": [
        {
          "internalType": "uint256",
          "name": "",
          "type": "uint256"
        }
      ],
      "stateMutability": "view",
      "type": "function"
    },
    {
      "inputs": [
        {
          "internalType": "uint256",
          "name": "_amount",
          "type": "uint256"
        }
      ],
      "name": "deposit",
      "outputs": [],
      "stateMutability": "nonpayable",
      "type": "function"
    },
    {
      "inputs": [],
      "name": "destroy",
      "outputs": [],
      "stateMutability": "nonpayable",
      "type": "function"
    },
    {
      "inputs": [],
      "name": "id",
      "outputs": [
        {
          "internalType": "uint256",
          "name": "",
          "type": "uint256"
        }
      ],
      "stateMutability": "view",
      "type": "function"
    },
    {
      "inputs": [],
      "name": "isDestroyed",
      "outputs": [
        {
          "internalType": "bool",
          "name": "",
          "type": "bool"
        }
      ],
      "stateMutability": "view",
      "type": "function"
    },
    {
      "inputs": [
        {
          "internalType": "address",
          "name": "",
          "type": "address"
        }
      ],
      "name": "lastWithdrawTime",
      "outputs": [
        {
          "internalType": "uint256",
          "name": "",
          "type": "uint256"
        }
      ],
      "stateMutability": "view",
      "type": "function"
    },
    {
      "inputs": [],
      "name": "owner",
      "outputs": [
        {
          "internalType": "address",
          "name": "",
          "type": "address"
        }
      ],
      "stateMutability": "view",
      "type": "function"
    },
    {
      "inputs": [
        {
          "internalType": "uint256",
          "name": "_newCooldownTime",
          "type": "uint256"
        }
      ],
      "name": "setCooldownTime",
      "outputs": [],
      "stateMutability": "nonpayable",
      "type": "function"
    },
    {
      "inputs": [
        {
          "internalType": "uint256",
          "name": "_newAmount",
          "type": "uint256"
        }
      ],
      "name": "setWithdrawalAmount",
      "outputs": [],
      "stateMutability": "nonpayable",
      "type": "function"
    },
    {
      "inputs": [],
      "name": "token",
      "outputs": [
        {
          "internalType": "contract IERC20",
          "name": "",
          "type": "address"
        }
      ],
      "stateMutability": "view",
      "type": "function"
    },
    {
      "inputs": [
        {
          "internalType": "address",
          "name": "newOwner",
          "type": "address"
        }
      ],
      "name": "transferOwnership",
      "outputs": [],
      "stateMutability": "nonpayable",
      "type": "function"
    },
    {
      "inputs": [
        {
          "internalType": "address",
          "name": "_receiver",
          "type": "address"
        }
      ],
      "name": "withdraw",
      "outputs": [],
      "stateMutability": "nonpayable",
      "type": "function"
    },
    {
      "inputs": [],
      "name": "withdrawalAmount",
      "outputs": [
        {
          "internalType": "uint256",
          "name": "",
          "type": "uint256"
        }
      ],
      "stateMutability": "view",
      "type": "function"
    }
  ],
  "bytecode": "0x60806040523480156200001157600080fd5b5060405162001a1838038062001a18833981810160405281019062000037919062000197565b336000806101000a81548173ffffffffffffffffffffffffffffffffffffffff021916908373ffffffffffffffffffffffffffffffffffffffff16021790555082600560006101000a81548173ffffffffffffffffffffffffffffffffffffffff021916908373ffffffffffffffffffffffffffffffffffffffff16021790555081600281905550806003819055506000600560146101000a81548160ff0219169083151502179055506000600181905550505050620001f3565b600080fd5b600073ffffffffffffffffffffffffffffffffffffffff82169050919050565b60006200012482620000f7565b9050919050565b620001368162000117565b81146200014257600080fd5b50565b60008151905062000156816200012b565b92915050565b6000819050919050565b62000171816200015c565b81146200017d57600080fd5b50565b600081519050620001918162000166565b92915050565b600080600060608486031215620001b357620001b2620000f2565b5b6000620001c38682870162000145565b9350506020620001d68682870162000180565b9250506040620001e98682870162000180565b9150509250925092565b61181580620002036000396000f3fe608060405234801561001057600080fd5b50600436106100cf5760003560e01c8063a6151a841161008c578063b6b55f2511610066578063b6b55f25146101da578063e6e268f4146101f6578063f2fde38b14610214578063fc0c546a14610230576100cf565b8063a6151a8414610180578063af640d0f1461019e578063b319c6b7146101bc576100cf565b80631031ec31146100d4578063168ee33a1461010457806351cff8d9146101205780636ff732011461013c57806383197ef0146101585780638da5cb5b14610162575b600080fd5b6100ee60048036038101906100e99190610e21565b61024e565b6040516100fb9190610e67565b60405180910390f35b61011e60048036038101906101199190610eae565b610266565b005b61013a60048036038101906101359190610e21565b6103d5565b005b61015660048036038101906101519190610eae565b610637565b005b6101606107a6565b005b61016a6109fd565b6040516101779190610eea565b60405180910390f35b610188610a21565b6040516101959190610f20565b60405180910390f35b6101a6610a34565b6040516101b39190610e67565b60405180910390f35b6101c4610a3a565b6040516101d19190610e67565b60405180910390f35b6101f460048036038101906101ef9190610eae565b610a40565b005b6101fe610b74565b60405161020b9190610e67565b60405180910390f35b61022e60048036038101906102299190610e21565b610b7a565b005b610238610d98565b6040516102459190610f9a565b60405180910390f35b60046020528060005260406000206000915090505481565b60008054906101000a900473ffffffffffffffffffffffffffffffffffffffff1673ffffffffffffffffffffffffffffffffffffffff163373ffffffffffffffffffffffffffffffffffffffff16146102f4576040517f08c379a00000000000000000000000000000000000000000000000000000000081526004016102eb90611038565b60405180910390fd5b600560149054906101000a900460ff1615610344576040517f08c379a000000000000000000000000000000000000000000000000000000000815260040161033b906110ca565b60405180910390fd5b60008111610387576040517f08c379a000000000000000000000000000000000000000000000000000000000815260040161037e9061115c565b60405180910390fd5b60025481036103cb576040517f08c379a00000000000000000000000000000000000000000000000000000000081526004016103c2906111ee565b60405180910390fd5b8060028190555050565b600560149054906101000a900460ff1615610425576040517f08c379a000000000000000000000000000000000000000000000000000000000815260040161041c906110ca565b60405180910390fd5b600354600460008373ffffffffffffffffffffffffffffffffffffffff1673ffffffffffffffffffffffffffffffffffffffff16815260200190815260200160002054610472919061123d565b4210156104b4576040517f08c379a00000000000000000000000000000000000000000000000000000000081526004016104ab906112e3565b60405180910390fd5b42600460008373ffffffffffffffffffffffffffffffffffffffff1673ffffffffffffffffffffffffffffffffffffffff16815260200190815260200160002081905550600560009054906101000a900473ffffffffffffffffffffffffffffffffffffffff1673ffffffffffffffffffffffffffffffffffffffff1663a9059cbb826002546040518363ffffffff1660e01b8152600401610557929190611303565b6020604051808303816000875af1158015610576573d6000803e3d6000fd5b505050506040513d601f19601f8201168201806040525081019061059a9190611358565b6105d9576040517f08c379a00000000000000000000000000000000000000000000000000000000081526004016105d0906113f7565b60405180910390fd5b7f3cfd8f40ab1bf5796dd05707dd1fc1301d67d70d4ef2f50991688b72550d3494600154826002544642604051610614959493929190611417565b60405180910390a16001600081548092919061062f9061146a565b919050555050565b60008054906101000a900473ffffffffffffffffffffffffffffffffffffffff1673ffffffffffffffffffffffffffffffffffffffff163373ffffffffffffffffffffffffffffffffffffffff16146106c5576040517f08c379a00000000000000000000000000000000000000000000000000000000081526004016106bc90611038565b60405180910390fd5b600560149054906101000a900460ff1615610715576040517f08c379a000000000000000000000000000000000000000000000000000000000815260040161070c906110ca565b60405180910390fd5b60008111610758576040517f08c379a000000000000000000000000000000000000000000000000000000000815260040161074f90611524565b60405180910390fd5b600354810361079c576040517f08c379a0000000000000000000000000000000000000000000000000000000008152600401610793906115b6565b60405180910390fd5b8060038190555050565b60008054906101000a900473ffffffffffffffffffffffffffffffffffffffff1673ffffffffffffffffffffffffffffffffffffffff163373ffffffffffffffffffffffffffffffffffffffff1614610834576040517f08c379a000000000000000000000000000000000000000000000000000000000815260040161082b90611038565b60405180910390fd5b600560149054906101000a900460ff1615610884576040517f08c379a000000000000000000000000000000000000000000000000000000000815260040161087b906110ca565b60405180910390fd5b600560009054906101000a900473ffffffffffffffffffffffffffffffffffffffff1673ffffffffffffffffffffffffffffffffffffffff1663a9059cbb60008054906101000a900473ffffffffffffffffffffffffffffffffffffffff16600560009054906101000a900473ffffffffffffffffffffffffffffffffffffffff1673ffffffffffffffffffffffffffffffffffffffff166370a08231306040518263ffffffff1660e01b815260040161093e9190610eea565b602060405180830381865afa15801561095b573d6000803e3d6000fd5b505050506040513d601f19601f8201168201806040525081019061097f91906115eb565b6040518363ffffffff1660e01b815260040161099c929190611303565b6020604051808303816000875af11580156109bb573d6000803e3d6000fd5b505050506040513d601f19601f820116820180604052508101906109df9190611358565b506001600560146101000a81548160ff021916908315150217905550565b60008054906101000a900473ffffffffffffffffffffffffffffffffffffffff1681565b600560149054906101000a900460ff1681565b60015481565b60035481565b600560149054906101000a900460ff1615610a90576040517f08c379a0000000000000000000000000000000000000000000000000000000008152600401610a87906110ca565b60405180910390fd5b600560009054906101000a900473ffffffffffffffffffffffffffffffffffffffff1673ffffffffffffffffffffffffffffffffffffffff166323b872dd3330846040518463ffffffff1660e01b8152600401610aef93929190611618565b6020604051808303816000875af1158015610b0e573d6000803e3d6000fd5b505050506040513d601f19601f82011682018060405250810190610b329190611358565b610b71576040517f08c379a0000000000000000000000000000000000000000000000000000000008152600401610b68906116c1565b60405180910390fd5b50565b60025481565b60008054906101000a900473ffffffffffffffffffffffffffffffffffffffff1673ffffffffffffffffffffffffffffffffffffffff163373ffffffffffffffffffffffffffffffffffffffff1614610c08576040517f08c379a0000000000000000000000000000000000000000000000000000000008152600401610bff90611038565b60405180910390fd5b600560149054906101000a900460ff1615610c58576040517f08c379a0000000000000000000000000000000000000000000000000000000008152600401610c4f906110ca565b60405180910390fd5b600073ffffffffffffffffffffffffffffffffffffffff168173ffffffffffffffffffffffffffffffffffffffff1603610cc7576040517f08c379a0000000000000000000000000000000000000000000000000000000008152600401610cbe9061172d565b60405180910390fd5b60008054906101000a900473ffffffffffffffffffffffffffffffffffffffff1673ffffffffffffffffffffffffffffffffffffffff168173ffffffffffffffffffffffffffffffffffffffff1603610d55576040517f08c379a0000000000000000000000000000000000000000000000000000000008152600401610d4c906117bf565b60405180910390fd5b806000806101000a81548173ffffffffffffffffffffffffffffffffffffffff021916908373ffffffffffffffffffffffffffffffffffffffff16021790555050565b600560009054906101000a900473ffffffffffffffffffffffffffffffffffffffff1681565b600080fd5b600073ffffffffffffffffffffffffffffffffffffffff82169050919050565b6000610dee82610dc3565b9050919050565b610dfe81610de3565b8114610e0957600080fd5b50565b600081359050610e1b81610df5565b92915050565b600060208284031215610e3757610e36610dbe565b5b6000610e4584828501610e0c565b91505092915050565b6000819050919050565b610e6181610e4e565b82525050565b6000602082019050610e7c6000830184610e58565b92915050565b610e8b81610e4e565b8114610e9657600080fd5b50565b600081359050610ea881610e82565b92915050565b600060208284031215610ec457610ec3610dbe565b5b6000610ed284828501610e99565b91505092915050565b610ee481610de3565b82525050565b6000602082019050610eff6000830184610edb565b92915050565b60008115159050919050565b610f1a81610f05565b82525050565b6000602082019050610f356000830184610f11565b92915050565b6000819050919050565b6000610f60610f5b610f5684610dc3565b610f3b565b610dc3565b9050919050565b6000610f7282610f45565b9050919050565b6000610f8482610f67565b9050919050565b610f9481610f79565b82525050565b6000602082019050610faf6000830184610f8b565b92915050565b600082825260208201905092915050565b7f4f6e6c79206f776e65722063616e2063616c6c20746869732066756e6374696f60008201527f6e2e000000000000000000000000000000000000000000000000000000000000602082015250565b6000611022602283610fb5565b915061102d82610fc6565b604082019050919050565b6000602082019050818103600083015261105181611015565b9050919050565b7f436f6e74726163742068617320616c7265616479206265656e2064657374726f60008201527f7965642e00000000000000000000000000000000000000000000000000000000602082015250565b60006110b4602483610fb5565b91506110bf82611058565b604082019050919050565b600060208201905081810360008301526110e3816110a7565b9050919050565b7f5769746864726177616c20616d6f756e74206d7573742062652067726561746560008201527f72207468616e207a65726f2e0000000000000000000000000000000000000000602082015250565b6000611146602c83610fb5565b9150611151826110ea565b604082019050919050565b6000602082019050818103600083015261117581611139565b9050919050565b7f4e6577207769746864726177616c20616d6f756e74206d75737420626520646960008201527f66666572656e742066726f6d207468652063757272656e74206f6e652e000000602082015250565b60006111d8603d83610fb5565b91506111e38261117c565b604082019050919050565b60006020820190508181036000830152611207816111cb565b9050919050565b7f4e487b7100000000000000000000000000000000000000000000000000000000600052601160045260246000fd5b600061124882610e4e565b915061125383610e4e565b925082820190508082111561126b5761126a61120e565b5b92915050565b7f436f6f6c646f776e20706572696f6420686173206e6f7420706173736564207960008201527f65742e0000000000000000000000000000000000000000000000000000000000602082015250565b60006112cd602383610fb5565b91506112d882611271565b604082019050919050565b600060208201905081810360008301526112fc816112c0565b9050919050565b60006040820190506113186000830185610edb565b6113256020830184610e58565b9392505050565b61133581610f05565b811461134057600080fd5b50565b6000815190506113528161132c565b92915050565b60006020828403121561136e5761136d610dbe565b5b600061137c84828501611343565b91505092915050565b7f4661696c656420746f207472616e7366657220746f6b656e7320746f2073656e60008201527f6465722e00000000000000000000000000000000000000000000000000000000602082015250565b60006113e1602483610fb5565b91506113ec82611385565b604082019050919050565b60006020820190508181036000830152611410816113d4565b9050919050565b600060a08201905061142c6000830188610e58565b6114396020830187610edb565b6114466040830186610e58565b6114536060830185610e58565b6114606080830184610e58565b9695505050505050565b600061147582610e4e565b91507fffffffffffffffffffffffffffffffffffffffffffffffffffffffffffffffff82036114a7576114a661120e565b5b600182019050919050565b7f436f6f6c646f776e2074696d65206d757374206265206772656174657220746860008201527f616e207a65726f2e000000000000000000000000000000000000000000000000602082015250565b600061150e602883610fb5565b9150611519826114b2565b604082019050919050565b6000602082019050818103600083015261153d81611501565b9050919050565b7f4e657720636f6f6c646f776e2074696d65206d7573742062652064696666657260008201527f656e742066726f6d207468652063757272656e74206f6e652e00000000000000602082015250565b60006115a0603983610fb5565b91506115ab82611544565b604082019050919050565b600060208201905081810360008301526115cf81611593565b9050919050565b6000815190506115e581610e82565b92915050565b60006020828403121561160157611600610dbe565b5b600061160f848285016115d6565b91505092915050565b600060608201905061162d6000830186610edb565b61163a6020830185610edb565b6116476040830184610e58565b949350505050565b7f4661696c656420746f207472616e7366657220746f6b656e7320746f20636f6e60008201527f74726163742e0000000000000000000000000000000000000000000000000000602082015250565b60006116ab602683610fb5565b91506116b68261164f565b604082019050919050565b600060208201905081810360008301526116da8161169e565b9050919050565b7f4f776e657220616464726573732063616e6e6f74206265207a65726f2e000000600082015250565b6000611717601d83610fb5565b9150611722826116e1565b602082019050919050565b600060208201905081810360008301526117468161170a565b9050919050565b7f4e6577206f776e657220616464726573732063616e6e6f74206265207468652060008201527f73616d65206173207468652063757272656e74206f776e65722e000000000000602082015250565b60006117a9603a83610fb5565b91506117b48261174d565b604082019050919050565b600060208201905081810360008301526117d88161179c565b905091905056fea2646970667358221220f7d1a01f2f1809b1acf6c1c97e80b9d381e6aba98f45a10a70d40d513dbdece464736f6c63430008140033",
  "linkReferences": {},
  "deployedLinkReferences": {}
}