{
  "_format": "hh-sol-artifact-1",
  "contractName": "CertificateNFT",
  "sourceName": "contracts/CertificateNFT.sol",
  "abi": [
    {
      "inputs": [
        {
          "internalType": "string",
          "name": "_name",
          "type": "string"
        },
        {
          "internalType": "string",
          "name": "_symbol",
          "type": "string"
        }
      ],
      "stateMutability": "nonpayable",
      "type": "constructor"
    },
    {
      "inputs": [
        {
          "internalType": "address",
          "name": "sender",
          "type": "address"
        },
        {
          "internalType": "uint256",
          "name": "tokenId",
          "type": "uint256"
        },
        {
          "internalType": "address",
          "name": "owner",
          "type": "address"
        }
      ],
      "name": "ERC721IncorrectOwner",
      "type": "error"
    },
    {
      "inputs": [
        {
          "internalType": "address",
          "name": "operator",
          "type": "address"
        },
        {
          "internalType": "uint256",
          "name": "tokenId",
          "type": "uint256"
        }
      ],
      "name": "ERC721InsufficientApproval",
      "type": "error"
    },
    {
      "inputs": [
        {
          "internalType": "address",
          "name": "approver",
          "type": "address"
        }
      ],
      "name": "ERC721InvalidApprover",
      "type": "error"
    },
    {
      "inputs": [
        {
          "internalType": "address",
          "name": "operator",
          "type": "address"
        }
      ],
      "name": "ERC721InvalidOperator",
      "type": "error"
    },
    {
      "inputs": [
        {
          "internalType": "address",
          "name": "owner",
          "type": "address"
        }
      ],
      "name": "ERC721InvalidOwner",
      "type": "error"
    },
    {
      "inputs": [
        {
          "internalType": "address",
          "name": "receiver",
          "type": "address"
        }
      ],
      "name": "ERC721InvalidReceiver",
      "type": "error"
    },
    {
      "inputs": [
        {
          "internalType": "address",
          "name": "sender",
          "type": "address"
        }
      ],
      "name": "ERC721InvalidSender",
      "type": "error"
    },
    {
      "inputs": [
        {
          "internalType": "uint256",
          "name": "tokenId",
          "type": "uint256"
        }
      ],
      "name": "ERC721NonexistentToken",
      "type": "error"
    },
    {
      "inputs": [
        {
          "internalType": "address",
          "name": "owner",
          "type": "address"
        }
      ],
      "name": "OwnableInvalidOwner",
      "type": "error"
    },
    {
      "inputs": [
        {
          "internalType": "address",
          "name": "account",
          "type": "address"
        }
      ],
      "name": "OwnableUnauthorizedAccount",
      "type": "error"
    },
    {
      "anonymous": false,
      "inputs": [
        {
          "indexed": true,
          "internalType": "address",
          "name": "owner",
          "type": "address"
        },
        {
          "indexed": true,
          "internalType": "address",
          "name": "approved",
          "type": "address"
        },
        {
          "indexed": true,
          "internalType": "uint256",
          "name": "tokenId",
          "type": "uint256"
        }
      ],
      "name": "Approval",
      "type": "event"
    },
    {
      "anonymous": false,
      "inputs": [
        {
          "indexed": true,
          "internalType": "address",
          "name": "owner",
          "type": "address"
        },
        {
          "indexed": true,
          "internalType": "address",
          "name": "operator",
          "type": "address"
        },
        {
          "indexed": false,
          "internalType": "bool",
          "name": "approved",
          "type": "bool"
        }
      ],
      "name": "ApprovalForAll",
      "type": "event"
    },
    {
      "anonymous": false,
      "inputs": [
        {
          "indexed": false,
          "internalType": "uint256",
          "name": "_fromTokenId",
          "type": "uint256"
        },
        {
          "indexed": false,
          "internalType": "uint256",
          "name": "_toTokenId",
          "type": "uint256"
        }
      ],
      "name": "BatchMetadataUpdate",
      "type": "event"
    },
    {
      "anonymous": false,
      "inputs": [
        {
          "indexed": false,
          "internalType": "uint256",
          "name": "_tokenId",
          "type": "uint256"
        }
      ],
      "name": "MetadataUpdate",
      "type": "event"
    },
    {
      "anonymous": false,
      "inputs": [
        {
          "indexed": true,
          "internalType": "address",
          "name": "previousOwner",
          "type": "address"
        },
        {
          "indexed": true,
          "internalType": "address",
          "name": "newOwner",
          "type": "address"
        }
      ],
      "name": "OwnershipTransferred",
      "type": "event"
    },
    {
      "anonymous": false,
      "inputs": [
        {
          "indexed": true,
          "internalType": "address",
          "name": "from",
          "type": "address"
        },
        {
          "indexed": true,
          "internalType": "address",
          "name": "to",
          "type": "address"
        },
        {
          "indexed": true,
          "internalType": "uint256",
          "name": "tokenId",
          "type": "uint256"
        }
      ],
      "name": "Transfer",
      "type": "event"
    },
    {
      "anonymous": false,
      "inputs": [
        {
          "indexed": false,
          "internalType": "address",
          "name": "account",
          "type": "address"
        },
        {
          "indexed": false,
          "internalType": "uint256",
          "name": "tokenId",
          "type": "uint256"
        },
        {
          "components": [
            {
              "internalType": "string",
              "name": "userId",
              "type": "string"
            },
            {
              "internalType": "string",
              "name": "chaidId",
              "type": "string"
            },
            {
              "internalType": "string",
              "name": "classId",
              "type": "string"
            },
            {
              "internalType": "string",
              "name": "certificateId",
              "type": "string"
            },
            {
              "internalType": "string",
              "name": "leveID",
              "type": "string"
            },
            {
              "internalType": "string",
              "name": "standby_one",
              "type": "string"
            }
          ],
          "indexed": false,
          "internalType": "struct CertificateNFT.Certificate",
          "name": "certificate",
          "type": "tuple"
        }
      ],
      "name": "mintEvent",
      "type": "event"
    },
    {
      "inputs": [
        {
          "internalType": "address",
          "name": "to",
          "type": "address"
        },
        {
          "internalType": "uint256",
          "name": "tokenId",
          "type": "uint256"
        }
      ],
      "name": "approve",
      "outputs": [],
      "stateMutability": "nonpayable",
      "type": "function"
    },
    {
      "inputs": [
        {
          "internalType": "address",
          "name": "owner",
          "type": "address"
        }
      ],
      "name": "balanceOf",
      "outputs": [
        {
          "internalType": "uint256",
          "name": "",
          "type": "uint256"
        }
      ],
      "stateMutability": "view",
      "type": "function"
    },
    {
      "inputs": [],
      "name": "baseURI",
      "outputs": [
        {
          "internalType": "string",
          "name": "",
          "type": "string"
        }
      ],
      "stateMutability": "view",
      "type": "function"
    },
    {
      "inputs": [
        {
          "internalType": "uint256",
          "name": "",
          "type": "uint256"
        }
      ],
      "name": "certificates",
      "outputs": [
        {
          "internalType": "string",
          "name": "userId",
          "type": "string"
        },
        {
          "internalType": "string",
          "name": "chaidId",
          "type": "string"
        },
        {
          "internalType": "string",
          "name": "classId",
          "type": "string"
        },
        {
          "internalType": "string",
          "name": "certificateId",
          "type": "string"
        },
        {
          "internalType": "string",
          "name": "leveID",
          "type": "string"
        },
        {
          "internalType": "string",
          "name": "standby_one",
          "type": "string"
        }
      ],
      "stateMutability": "view",
      "type": "function"
    },
    {
      "inputs": [
        {
          "internalType": "uint256",
          "name": "tokenId",
          "type": "uint256"
        }
      ],
      "name": "getApproved",
      "outputs": [
        {
          "internalType": "address",
          "name": "",
          "type": "address"
        }
      ],
      "stateMutability": "view",
      "type": "function"
    },
    {
      "inputs": [
        {
          "internalType": "bytes32",
          "name": "_messageHash",
          "type": "bytes32"
        }
      ],
      "name": "getEthSignedMessageHash",
      "outputs": [
        {
          "internalType": "bytes32",
          "name": "",
          "type": "bytes32"
        }
      ],
      "stateMutability": "pure",
      "type": "function"
    },
    {
      "inputs": [
        {
          "internalType": "address",
          "name": "_account",
          "type": "address"
        },
        {
          "internalType": "uint256",
          "name": "_tokenId",
          "type": "uint256"
        },
        {
          "internalType": "string",
          "name": "userId",
          "type": "string"
        },
        {
          "internalType": "string",
          "name": "chainId",
          "type": "string"
        },
        {
          "internalType": "string",
          "name": "classId",
          "type": "string"
        },
        {
          "internalType": "string",
          "name": "certificateId",
          "type": "string"
        },
        {
          "internalType": "string",
          "name": "levelId",
          "type": "string"
        },
        {
          "internalType": "string",
          "name": "standby_one",
          "type": "string"
        }
      ],
      "name": "getMessageHash",
      "outputs": [
        {
          "internalType": "bytes32",
          "name": "",
          "type": "bytes32"
        }
      ],
      "stateMutability": "pure",
      "type": "function"
    },
    {
      "inputs": [
        {
          "internalType": "address",
          "name": "owner",
          "type": "address"
        },
        {
          "internalType": "address",
          "name": "operator",
          "type": "address"
        }
      ],
      "name": "isApprovedForAll",
      "outputs": [
        {
          "internalType": "bool",
          "name": "",
          "type": "bool"
        }
      ],
      "stateMutability": "view",
      "type": "function"
    },
    {
      "inputs": [
        {
          "internalType": "address",
          "name": "_account",
          "type": "address"
        },
        {
          "internalType": "string",
          "name": "userId",
          "type": "string"
        },
        {
          "internalType": "string",
          "name": "chainId",
          "type": "string"
        },
        {
          "internalType": "string",
          "name": "classId",
          "type": "string"
        },
        {
          "internalType": "string",
          "name": "certificateId",
          "type": "string"
        },
        {
          "internalType": "string",
          "name": "levelId",
          "type": "string"
        },
        {
          "internalType": "string",
          "name": "standby_one",
          "type": "string"
        },
        {
          "internalType": "bytes",
          "name": "_signature",
          "type": "bytes"
        }
      ],
      "name": "mint",
      "outputs": [
        {
          "internalType": "uint256",
          "name": "",
          "type": "uint256"
        }
      ],
      "stateMutability": "nonpayable",
      "type": "function"
    },
    {
      "inputs": [],
      "name": "name",
      "outputs": [
        {
          "internalType": "string",
          "name": "",
          "type": "string"
        }
      ],
      "stateMutability": "view",
      "type": "function"
    },
    {
      "inputs": [],
      "name": "owner",
      "outputs": [
        {
          "internalType": "address",
          "name": "",
          "type": "address"
        }
      ],
      "stateMutability": "view",
      "type": "function"
    },
    {
      "inputs": [
        {
          "internalType": "uint256",
          "name": "tokenId",
          "type": "uint256"
        }
      ],
      "name": "ownerOf",
      "outputs": [
        {
          "internalType": "address",
          "name": "",
          "type": "address"
        }
      ],
      "stateMutability": "view",
      "type": "function"
    },
    {
      "inputs": [],
      "name": "renounceOwnership",
      "outputs": [],
      "stateMutability": "nonpayable",
      "type": "function"
    },
    {
      "inputs": [
        {
          "internalType": "address",
          "name": "from",
          "type": "address"
        },
        {
          "internalType": "address",
          "name": "to",
          "type": "address"
        },
        {
          "internalType": "uint256",
          "name": "tokenId",
          "type": "uint256"
        }
      ],
      "name": "safeTransferFrom",
      "outputs": [],
      "stateMutability": "nonpayable",
      "type": "function"
    },
    {
      "inputs": [
        {
          "internalType": "address",
          "name": "from",
          "type": "address"
        },
        {
          "internalType": "address",
          "name": "to",
          "type": "address"
        },
        {
          "internalType": "uint256",
          "name": "tokenId",
          "type": "uint256"
        },
        {
          "internalType": "bytes",
          "name": "data",
          "type": "bytes"
        }
      ],
      "name": "safeTransferFrom",
      "outputs": [],
      "stateMutability": "nonpayable",
      "type": "function"
    },
    {
      "inputs": [
        {
          "internalType": "address",
          "name": "operator",
          "type": "address"
        },
        {
          "internalType": "bool",
          "name": "approved",
          "type": "bool"
        }
      ],
      "name": "setApprovalForAll",
      "outputs": [],
      "stateMutability": "nonpayable",
      "type": "function"
    },
    {
      "inputs": [],
      "name": "signer",
      "outputs": [
        {
          "internalType": "address",
          "name": "",
          "type": "address"
        }
      ],
      "stateMutability": "view",
      "type": "function"
    },
    {
      "inputs": [
        {
          "internalType": "bytes4",
          "name": "interfaceId",
          "type": "bytes4"
        }
      ],
      "name": "supportsInterface",
      "outputs": [
        {
          "internalType": "bool",
          "name": "",
          "type": "bool"
        }
      ],
      "stateMutability": "view",
      "type": "function"
    },
    {
      "inputs": [],
      "name": "symbol",
      "outputs": [
        {
          "internalType": "string",
          "name": "",
          "type": "string"
        }
      ],
      "stateMutability": "view",
      "type": "function"
    },
    {
      "inputs": [],
      "name": "tokenId",
      "outputs": [
        {
          "internalType": "uint256",
          "name": "",
          "type": "uint256"
        }
      ],
      "stateMutability": "view",
      "type": "function"
    },
    {
      "inputs": [
        {
          "internalType": "uint256",
          "name": "",
          "type": "uint256"
        }
      ],
      "name": "tokenIsMint",
      "outputs": [
        {
          "internalType": "bool",
          "name": "",
          "type": "bool"
        }
      ],
      "stateMutability": "view",
      "type": "function"
    },
    {
      "inputs": [
        {
          "internalType": "uint256",
          "name": "tokenId",
          "type": "uint256"
        }
      ],
      "name": "tokenURI",
      "outputs": [
        {
          "internalType": "string",
          "name": "",
          "type": "string"
        }
      ],
      "stateMutability": "view",
      "type": "function"
    },
    {
      "inputs": [
        {
          "internalType": "address",
          "name": "from",
          "type": "address"
        },
        {
          "internalType": "address",
          "name": "to",
          "type": "address"
        },
        {
          "internalType": "uint256",
          "name": "tokenId",
          "type": "uint256"
        }
      ],
      "name": "transferFrom",
      "outputs": [],
      "stateMutability": "nonpayable",
      "type": "function"
    },
    {
      "inputs": [
        {
          "internalType": "address",
          "name": "newOwner",
          "type": "address"
        }
      ],
      "name": "transferOwnership",
      "outputs": [],
      "stateMutability": "nonpayable",
      "type": "function"
    },
    {
      "inputs": [
        {
          "internalType": "string",
          "name": "_newBaseURI",
          "type": "string"
        }
      ],
      "name": "updateBaseURI",
      "outputs": [
        {
          "internalType": "bool",
          "name": "",
          "type": "bool"
        }
      ],
      "stateMutability": "nonpayable",
      "type": "function"
    },
    {
      "inputs": [
        {
          "internalType": "uint256",
          "name": "_tokenId",
          "type": "uint256"
        },
        {
          "components": [
            {
              "internalType": "string",
              "name": "userId",
              "type": "string"
            },
            {
              "internalType": "string",
              "name": "chaidId",
              "type": "string"
            },
            {
              "internalType": "string",
              "name": "classId",
              "type": "string"
            },
            {
              "internalType": "string",
              "name": "certificateId",
              "type": "string"
            },
            {
              "internalType": "string",
              "name": "leveID",
              "type": "string"
            },
            {
              "internalType": "string",
              "name": "standby_one",
              "type": "string"
            }
          ],
          "internalType": "struct CertificateNFT.Certificate",
          "name": "certificate",
          "type": "tuple"
        }
      ],
      "name": "updateCertificate",
      "outputs": [],
      "stateMutability": "nonpayable",
      "type": "function"
    },
    {
      "inputs": [
        {
          "internalType": "address",
          "name": "_signer",
          "type": "address"
        }
      ],
      "name": "updateSigner",
      "outputs": [],
      "stateMutability": "nonpayable",
      "type": "function"
    },
    {
      "inputs": [
        {
          "internalType": "bytes32",
          "name": "_msgHash",
          "type": "bytes32"
        },
        {
          "internalType": "bytes",
          "name": "_signature",
          "type": "bytes"
        }
      ],
      "name": "verify",
      "outputs": [
        {
          "internalType": "bool",
          "name": "",
          "type": "bool"
        }
      ],
      "stateMutability": "view",
      "type": "function"
    }
  ],
  "bytecode": "0x60806040523480156200001157600080fd5b5060405162004652380380620046528339818101604052810190620000379190620003d0565b33828281600090816200004b9190620006a0565b5080600190816200005d9190620006a0565b505050600073ffffffffffffffffffffffffffffffffffffffff168173ffffffffffffffffffffffffffffffffffffffff1603620000d55760006040517f1e4fbdf7000000000000000000000000000000000000000000000000000000008152600401620000cc9190620007cc565b60405180910390fd5b620000e6816200017760201b60201c565b5033600860006101000a81548173ffffffffffffffffffffffffffffffffffffffff021916908373ffffffffffffffffffffffffffffffffffffffff1602179055506040518060400160405280601c81526020017f68747470733a2f2f6173736574732e6861636b71756573742e696f2f00000000815250600a90816200016e9190620006a0565b505050620007e9565b6000600760009054906101000a900473ffffffffffffffffffffffffffffffffffffffff16905081600760006101000a81548173ffffffffffffffffffffffffffffffffffffffff021916908373ffffffffffffffffffffffffffffffffffffffff1602179055508173ffffffffffffffffffffffffffffffffffffffff168173ffffffffffffffffffffffffffffffffffffffff167f8be0079c531659141344cd1fd0a4f28419497f9722a3daafe3b4186f6b6457e060405160405180910390a35050565b6000604051905090565b600080fd5b600080fd5b600080fd5b600080fd5b6000601f19601f8301169050919050565b7f4e487b7100000000000000000000000000000000000000000000000000000000600052604160045260246000fd5b620002a6826200025b565b810181811067ffffffffffffffff82111715620002c857620002c76200026c565b5b80604052505050565b6000620002dd6200023d565b9050620002eb82826200029b565b919050565b600067ffffffffffffffff8211156200030e576200030d6200026c565b5b62000319826200025b565b9050602081019050919050565b60005b838110156200034657808201518184015260208101905062000329565b60008484015250505050565b6000620003696200036384620002f0565b620002d1565b90508281526020810184848401111562000388576200038762000256565b5b6200039584828562000326565b509392505050565b600082601f830112620003b557620003b462000251565b5b8151620003c784826020860162000352565b91505092915050565b60008060408385031215620003ea57620003e962000247565b5b600083015167ffffffffffffffff8111156200040b576200040a6200024c565b5b62000419858286016200039d565b925050602083015167ffffffffffffffff8111156200043d576200043c6200024c565b5b6200044b858286016200039d565b9150509250929050565b600081519050919050565b7f4e487b7100000000000000000000000000000000000000000000000000000000600052602260045260246000fd5b60006002820490506001821680620004a857607f821691505b602082108103620004be57620004bd62000460565b5b50919050565b60008190508160005260206000209050919050565b60006020601f8301049050919050565b600082821b905092915050565b600060088302620005287fffffffffffffffffffffffffffffffffffffffffffffffffffffffffffffffff82620004e9565b620005348683620004e9565b95508019841693508086168417925050509392505050565b6000819050919050565b6000819050919050565b6000620005816200057b62000575846200054c565b62000556565b6200054c565b9050919050565b6000819050919050565b6200059d8362000560565b620005b5620005ac8262000588565b848454620004f6565b825550505050565b600090565b620005cc620005bd565b620005d981848462000592565b505050565b5b818110156200060157620005f5600082620005c2565b600181019050620005df565b5050565b601f82111562000650576200061a81620004c4565b6200062584620004d9565b8101602085101562000635578190505b6200064d6200064485620004d9565b830182620005de565b50505b505050565b600082821c905092915050565b6000620006756000198460080262000655565b1980831691505092915050565b600062000690838362000662565b9150826002028217905092915050565b620006ab8262000455565b67ffffffffffffffff811115620006c757620006c66200026c565b5b620006d382546200048f565b620006e082828562000605565b600060209050601f83116001811462000718576000841562000703578287015190505b6200070f858262000682565b8655506200077f565b601f1984166200072886620004c4565b60005b8281101562000752578489015182556001820191506020850194506020810190506200072b565b868310156200077257848901516200076e601f89168262000662565b8355505b6001600288020188555050505b505050505050565b600073ffffffffffffffffffffffffffffffffffffffff82169050919050565b6000620007b48262000787565b9050919050565b620007c681620007a7565b82525050565b6000602082019050620007e36000830184620007bb565b92915050565b613e5980620007f96000396000f3fe608060405234801561001057600080fd5b50600436106101c45760003560e01c8063715018a6116100f9578063b88d4fde11610097578063e985e9c511610071578063e985e9c514610544578063f2c791ad14610574578063f2fde38b14610590578063fa540801146105ac576101c4565b8063b88d4fde146104c8578063c87b56dd146104e4578063c93a615b14610514576101c4565b8063931688cb116100d3578063931688cb1461044257806395d89b4114610472578063a22cb46514610490578063a7ecd37e146104ac576101c4565b8063715018a6146103ea578063781373c2146103f45780638da5cb5b14610424576101c4565b806323b872dd116101665780636352211e116101405780636352211e14610337578063663b3e22146103675780636c0360eb1461039c57806370a08231146103ba576101c4565b806323b872dd146102cf578063258ae582146102eb57806342842e0e1461031b576101c4565b8063095ea7b3116101a2578063095ea7b31461024757806317d70f7c1461026357806318e770cc14610281578063238ac933146102b1576101c4565b806301ffc9a7146101c957806306fdde03146101f9578063081812fc14610217575b600080fd5b6101e360048036038101906101de919061274c565b6105dc565b6040516101f09190612794565b60405180910390f35b61020161063d565b60405161020e919061283f565b60405180910390f35b610231600480360381019061022c9190612897565b6106cf565b60405161023e9190612905565b60405180910390f35b610261600480360381019061025c919061294c565b6106eb565b005b61026b610701565b604051610278919061299b565b60405180910390f35b61029b60048036038101906102969190612b8c565b610707565b6040516102a8919061299b565b60405180910390f35b6102b96109cd565b6040516102c69190612905565b60405180910390f35b6102e960048036038101906102e49190612d06565b6109f3565b005b61030560048036038101906103009190612d8f565b610af5565b6040516103129190612794565b60405180910390f35b61033560048036038101906103309190612d06565b610b2c565b005b610351600480360381019061034c9190612897565b610b4c565b60405161035e9190612905565b60405180910390f35b610381600480360381019061037c9190612897565b610b5e565b60405161039396959493929190612deb565b60405180910390f35b6103a4610eca565b6040516103b1919061283f565b60405180910390f35b6103d460048036038101906103cf9190612e76565b610f58565b6040516103e1919061299b565b60405180910390f35b6103f2611012565b005b61040e60048036038101906104099190612897565b611026565b60405161041b9190612794565b60405180910390f35b61042c611046565b6040516104399190612905565b60405180910390f35b61045c60048036038101906104579190612ea3565b611070565b6040516104699190612794565b60405180910390f35b61047a611093565b604051610487919061283f565b60405180910390f35b6104aa60048036038101906104a59190612f18565b611125565b005b6104c660048036038101906104c19190612e76565b61113b565b005b6104e260048036038101906104dd9190612f58565b611187565b005b6104fe60048036038101906104f99190612897565b6111a4565b60405161050b919061283f565b60405180910390f35b61052e60048036038101906105299190612fdb565b6112b7565b60405161053b9190613148565b60405180910390f35b61055e60048036038101906105599190613163565b6112fc565b60405161056b9190612794565b60405180910390f35b61058e600480360381019061058991906132f5565b611390565b005b6105aa60048036038101906105a59190612e76565b611437565b005b6105c660048036038101906105c19190613351565b6114bd565b6040516105d39190613148565b60405180910390f35b6000634906490660e01b7bffffffffffffffffffffffffffffffffffffffffffffffffffffffff1916827bffffffffffffffffffffffffffffffffffffffffffffffffffffffff191614806106365750610635826114ed565b5b9050919050565b60606000805461064c906133ad565b80601f0160208091040260200160405190810160405280929190818152602001828054610678906133ad565b80156106c55780601f1061069a576101008083540402835291602001916106c5565b820191906000526020600020905b8154815290600101906020018083116106a857829003601f168201915b5050505050905090565b60006106da826115cf565b506106e482611657565b9050919050565b6106fd82826106f8611694565b61169c565b5050565b60095481565b60008860001515610717826116ae565b151514610759576040517f08c379a00000000000000000000000000000000000000000000000000000000081526004016107509061342a565b60405180910390fd5b600061076d8b6009548c8c8c8c8c8c6112b7565b9050600061077a826116c1565b90506107868186610af5565b6107c5576040517f08c379a00000000000000000000000000000000000000000000000000000000081526004016107bc90613496565b60405180910390fd5b600c6000600954815260200190815260200160002060009054906101000a900460ff1615610828576040517f08c379a000000000000000000000000000000000000000000000000000000000815260040161081f90613502565b60405180910390fd5b60006040518060c001604052808d81526020018c81526020018b81526020018a81526020018981526020018881525090506108658d6009546116f1565b60008c8a60405160200161087a9291906135d0565b6040516020818303038152906040529050610897600954826117ea565b81600b6000600954815260200190815260200160002060008201518160000190816108c291906137cd565b5060208201518160010190816108d891906137cd565b5060408201518160020190816108ee91906137cd565b50606082015181600301908161090491906137cd565b50608082015181600401908161091a91906137cd565b5060a082015181600501908161093091906137cd565b509050507f6f9abe8ebac97eaaf60ea3802a64eb52bcd46c7cb59d856d3595286739ce74718e6009548460405161096993929190613995565b60405180910390a16001600c6000600954815260200190815260200160002060006101000a81548160ff021916908315150217905550600960008154809291906109b290613a02565b91905055506009549550505050505098975050505050505050565b600860009054906101000a900473ffffffffffffffffffffffffffffffffffffffff1681565b600073ffffffffffffffffffffffffffffffffffffffff168273ffffffffffffffffffffffffffffffffffffffff1603610a655760006040517f64a0ae92000000000000000000000000000000000000000000000000000000008152600401610a5c9190612905565b60405180910390fd5b6000610a798383610a74611694565b611846565b90508373ffffffffffffffffffffffffffffffffffffffff168173ffffffffffffffffffffffffffffffffffffffff1614610aef578382826040517f64283d7b000000000000000000000000000000000000000000000000000000008152600401610ae693929190613a4a565b60405180910390fd5b50505050565b6000610b248383600860009054906101000a900473ffffffffffffffffffffffffffffffffffffffff16611a60565b905092915050565b610b4783838360405180602001604052806000815250611187565b505050565b6000610b57826115cf565b9050919050565b600b602052806000526040600020600091509050806000018054610b81906133ad565b80601f0160208091040260200160405190810160405280929190818152602001828054610bad906133ad565b8015610bfa5780601f10610bcf57610100808354040283529160200191610bfa565b820191906000526020600020905b815481529060010190602001808311610bdd57829003601f168201915b505050505090806001018054610c0f906133ad565b80601f0160208091040260200160405190810160405280929190818152602001828054610c3b906133ad565b8015610c885780601f10610c5d57610100808354040283529160200191610c88565b820191906000526020600020905b815481529060010190602001808311610c6b57829003601f168201915b505050505090806002018054610c9d906133ad565b80601f0160208091040260200160405190810160405280929190818152602001828054610cc9906133ad565b8015610d165780601f10610ceb57610100808354040283529160200191610d16565b820191906000526020600020905b815481529060010190602001808311610cf957829003601f168201915b505050505090806003018054610d2b906133ad565b80601f0160208091040260200160405190810160405280929190818152602001828054610d57906133ad565b8015610da45780601f10610d7957610100808354040283529160200191610da4565b820191906000526020600020905b815481529060010190602001808311610d8757829003601f168201915b505050505090806004018054610db9906133ad565b80601f0160208091040260200160405190810160405280929190818152602001828054610de5906133ad565b8015610e325780601f10610e0757610100808354040283529160200191610e32565b820191906000526020600020905b815481529060010190602001808311610e1557829003601f168201915b505050505090806005018054610e47906133ad565b80601f0160208091040260200160405190810160405280929190818152602001828054610e73906133ad565b8015610ec05780601f10610e9557610100808354040283529160200191610ec0565b820191906000526020600020905b815481529060010190602001808311610ea357829003601f168201915b5050505050905086565b600a8054610ed7906133ad565b80601f0160208091040260200160405190810160405280929190818152602001828054610f03906133ad565b8015610f505780601f10610f2557610100808354040283529160200191610f50565b820191906000526020600020905b815481529060010190602001808311610f3357829003601f168201915b505050505081565b60008073ffffffffffffffffffffffffffffffffffffffff168273ffffffffffffffffffffffffffffffffffffffff1603610fcb5760006040517f89c62b64000000000000000000000000000000000000000000000000000000008152600401610fc29190612905565b60405180910390fd5b600360008373ffffffffffffffffffffffffffffffffffffffff1673ffffffffffffffffffffffffffffffffffffffff168152602001908152602001600020549050919050565b61101a611aa3565b6110246000611b2a565b565b600c6020528060005260406000206000915054906101000a900460ff1681565b6000600760009054906101000a900473ffffffffffffffffffffffffffffffffffffffff16905090565b600061107a611aa3565b81600a908161108991906137cd565b5060019050919050565b6060600180546110a2906133ad565b80601f01602080910402602001604051908101604052809291908181526020018280546110ce906133ad565b801561111b5780601f106110f05761010080835404028352916020019161111b565b820191906000526020600020905b8154815290600101906020018083116110fe57829003601f168201915b5050505050905090565b611137611130611694565b8383611bf0565b5050565b611143611aa3565b80600860006101000a81548173ffffffffffffffffffffffffffffffffffffffff021916908373ffffffffffffffffffffffffffffffffffffffff16021790555050565b6111928484846109f3565b61119e84848484611d5f565b50505050565b60606111af826115cf565b5060006006600084815260200190815260200160002080546111d0906133ad565b80601f01602080910402602001604051908101604052809291908181526020018280546111fc906133ad565b80156112495780601f1061121e57610100808354040283529160200191611249565b820191906000526020600020905b81548152906001019060200180831161122c57829003601f168201915b50505050509050600061125a611f16565b9050600081510361126f5781925050506112b2565b6000825111156112a457808260405160200161128c929190613a81565b604051602081830303815290604052925050506112b2565b6112ad84611fa8565b925050505b919050565b600088888888888888886040516020016112d8989796959493929190613b0e565b60405160208183030381529060405280519060200120905098975050505050505050565b6000600560008473ffffffffffffffffffffffffffffffffffffffff1673ffffffffffffffffffffffffffffffffffffffff16815260200190815260200160002060008373ffffffffffffffffffffffffffffffffffffffff1673ffffffffffffffffffffffffffffffffffffffff16815260200190815260200160002060009054906101000a900460ff16905092915050565b611398611aa3565b80600b600084815260200190815260200160002060008201518160000190816113c191906137cd565b5060208201518160010190816113d791906137cd565b5060408201518160020190816113ed91906137cd565b50606082015181600301908161140391906137cd565b50608082015181600401908161141991906137cd565b5060a082015181600501908161142f91906137cd565b509050505050565b61143f611aa3565b600073ffffffffffffffffffffffffffffffffffffffff168173ffffffffffffffffffffffffffffffffffffffff16036114b15760006040517f1e4fbdf70000000000000000000000000000000000000000000000000000000081526004016114a89190612905565b60405180910390fd5b6114ba81611b2a565b50565b6000816040516020016114d09190613bf5565b604051602081830303815290604052805190602001209050919050565b60007f80ac58cd000000000000000000000000000000000000000000000000000000007bffffffffffffffffffffffffffffffffffffffffffffffffffffffff1916827bffffffffffffffffffffffffffffffffffffffffffffffffffffffff191614806115b857507f5b5e139f000000000000000000000000000000000000000000000000000000007bffffffffffffffffffffffffffffffffffffffffffffffffffffffff1916827bffffffffffffffffffffffffffffffffffffffffffffffffffffffff1916145b806115c857506115c782612011565b5b9050919050565b6000806115db8361207b565b9050600073ffffffffffffffffffffffffffffffffffffffff168173ffffffffffffffffffffffffffffffffffffffff160361164e57826040517f7e273289000000000000000000000000000000000000000000000000000000008152600401611645919061299b565b60405180910390fd5b80915050919050565b60006004600083815260200190815260200160002060009054906101000a900473ffffffffffffffffffffffffffffffffffffffff169050919050565b600033905090565b6116a983838360016120b8565b505050565b600080823b905060008111915050919050565b6000816040516020016116d49190613bf5565b604051602081830303815290604052805190602001209050919050565b600073ffffffffffffffffffffffffffffffffffffffff168273ffffffffffffffffffffffffffffffffffffffff16036117635760006040517f64a0ae9200000000000000000000000000000000000000000000000000000000815260040161175a9190612905565b60405180910390fd5b600061177183836000611846565b9050600073ffffffffffffffffffffffffffffffffffffffff168173ffffffffffffffffffffffffffffffffffffffff16146117e55760006040517f73c6ac6e0000000000000000000000000000000000000000000000000000000081526004016117dc9190612905565b60405180910390fd5b505050565b8060066000848152602001908152602001600020908161180a91906137cd565b507ff8e1a15aba9398e019f0b49df1a4fde98ee17ae345cb5f6b5e2c27f5033e8ce78260405161183a919061299b565b60405180910390a15050565b6000806118528461207b565b9050600073ffffffffffffffffffffffffffffffffffffffff168373ffffffffffffffffffffffffffffffffffffffff16146118945761189381848661227d565b5b600073ffffffffffffffffffffffffffffffffffffffff168173ffffffffffffffffffffffffffffffffffffffff1614611925576118d66000856000806120b8565b6001600360008373ffffffffffffffffffffffffffffffffffffffff1673ffffffffffffffffffffffffffffffffffffffff168152602001908152602001600020600082825403925050819055505b600073ffffffffffffffffffffffffffffffffffffffff168573ffffffffffffffffffffffffffffffffffffffff16146119a8576001600360008773ffffffffffffffffffffffffffffffffffffffff1673ffffffffffffffffffffffffffffffffffffffff168152602001908152602001600020600082825401925050819055505b846002600086815260200190815260200160002060006101000a81548173ffffffffffffffffffffffffffffffffffffffff021916908373ffffffffffffffffffffffffffffffffffffffff160217905550838573ffffffffffffffffffffffffffffffffffffffff168273ffffffffffffffffffffffffffffffffffffffff167fddf252ad1be2c89b69c2b068fc378daa952ba7f163c4a11628f55a4df523b3ef60405160405180910390a4809150509392505050565b60008173ffffffffffffffffffffffffffffffffffffffff16611a838585612341565b73ffffffffffffffffffffffffffffffffffffffff161490509392505050565b611aab611694565b73ffffffffffffffffffffffffffffffffffffffff16611ac9611046565b73ffffffffffffffffffffffffffffffffffffffff1614611b2857611aec611694565b6040517f118cdaa7000000000000000000000000000000000000000000000000000000008152600401611b1f9190612905565b60405180910390fd5b565b6000600760009054906101000a900473ffffffffffffffffffffffffffffffffffffffff16905081600760006101000a81548173ffffffffffffffffffffffffffffffffffffffff021916908373ffffffffffffffffffffffffffffffffffffffff1602179055508173ffffffffffffffffffffffffffffffffffffffff168173ffffffffffffffffffffffffffffffffffffffff167f8be0079c531659141344cd1fd0a4f28419497f9722a3daafe3b4186f6b6457e060405160405180910390a35050565b600073ffffffffffffffffffffffffffffffffffffffff168273ffffffffffffffffffffffffffffffffffffffff1603611c6157816040517f5b08ba18000000000000000000000000000000000000000000000000000000008152600401611c589190612905565b60405180910390fd5b80600560008573ffffffffffffffffffffffffffffffffffffffff1673ffffffffffffffffffffffffffffffffffffffff16815260200190815260200160002060008473ffffffffffffffffffffffffffffffffffffffff1673ffffffffffffffffffffffffffffffffffffffff16815260200190815260200160002060006101000a81548160ff0219169083151502179055508173ffffffffffffffffffffffffffffffffffffffff168373ffffffffffffffffffffffffffffffffffffffff167f17307eab39ab6107e8899845ad3d59bd9653f200f220920489ca2b5937696c3183604051611d529190612794565b60405180910390a3505050565b60008373ffffffffffffffffffffffffffffffffffffffff163b1115611f10578273ffffffffffffffffffffffffffffffffffffffff1663150b7a02611da3611694565b8685856040518563ffffffff1660e01b8152600401611dc59493929190613c70565b6020604051808303816000875af1925050508015611e0157506040513d601f19601f82011682018060405250810190611dfe9190613cd1565b60015b611e85573d8060008114611e31576040519150601f19603f3d011682016040523d82523d6000602084013e611e36565b606091505b506000815103611e7d57836040517f64a0ae92000000000000000000000000000000000000000000000000000000008152600401611e749190612905565b60405180910390fd5b805181602001fd5b63150b7a0260e01b7bffffffffffffffffffffffffffffffffffffffffffffffffffffffff1916817bffffffffffffffffffffffffffffffffffffffffffffffffffffffff191614611f0e57836040517f64a0ae92000000000000000000000000000000000000000000000000000000008152600401611f059190612905565b60405180910390fd5b505b50505050565b6060600a8054611f25906133ad565b80601f0160208091040260200160405190810160405280929190818152602001828054611f51906133ad565b8015611f9e5780601f10611f7357610100808354040283529160200191611f9e565b820191906000526020600020905b815481529060010190602001808311611f8157829003601f168201915b5050505050905090565b6060611fb3826115cf565b506000611fbe611f16565b90506000815111611fde5760405180602001604052806000815250612009565b80611fe8846123fe565b604051602001611ff9929190613a81565b6040516020818303038152906040525b915050919050565b60007f01ffc9a7000000000000000000000000000000000000000000000000000000007bffffffffffffffffffffffffffffffffffffffffffffffffffffffff1916827bffffffffffffffffffffffffffffffffffffffffffffffffffffffff1916149050919050565b60006002600083815260200190815260200160002060009054906101000a900473ffffffffffffffffffffffffffffffffffffffff169050919050565b80806120f15750600073ffffffffffffffffffffffffffffffffffffffff168273ffffffffffffffffffffffffffffffffffffffff1614155b15612225576000612101846115cf565b9050600073ffffffffffffffffffffffffffffffffffffffff168373ffffffffffffffffffffffffffffffffffffffff161415801561216c57508273ffffffffffffffffffffffffffffffffffffffff168173ffffffffffffffffffffffffffffffffffffffff1614155b801561217f575061217d81846112fc565b155b156121c157826040517fa9fbf51f0000000000000000000000000000000000000000000000000000000081526004016121b89190612905565b60405180910390fd5b811561222357838573ffffffffffffffffffffffffffffffffffffffff168273ffffffffffffffffffffffffffffffffffffffff167f8c5be1e5ebec7d5bd14f71427d1e84f3dd0314c0f7b2291e5b200ac8c7c3b92560405160405180910390a45b505b836004600085815260200190815260200160002060006101000a81548173ffffffffffffffffffffffffffffffffffffffff021916908373ffffffffffffffffffffffffffffffffffffffff16021790555050505050565b6122888383836124cc565b61233c57600073ffffffffffffffffffffffffffffffffffffffff168373ffffffffffffffffffffffffffffffffffffffff16036122fd57806040517f7e2732890000000000000000000000000000000000000000000000000000000081526004016122f4919061299b565b60405180910390fd5b81816040517f177e802f000000000000000000000000000000000000000000000000000000008152600401612333929190613cfe565b60405180910390fd5b505050565b60006041825114612387576040517f08c379a000000000000000000000000000000000000000000000000000000000815260040161237e90613d73565b60405180910390fd5b60008060006020850151925060408501519150606085015160001a9050600186828585604051600081526020016040526040516123c79493929190613daf565b6020604051602081039080840390855afa1580156123e9573d6000803e3d6000fd5b50505060206040510351935050505092915050565b60606000600161240d8461258d565b01905060008167ffffffffffffffff81111561242c5761242b6129c0565b5b6040519080825280601f01601f19166020018201604052801561245e5781602001600182028036833780820191505090505b509050600082602001820190505b6001156124c1578080600190039150507f3031323334353637383961626364656600000000000000000000000000000000600a86061a8153600a85816124b5576124b4613df4565b5b0494506000850361246c575b819350505050919050565b60008073ffffffffffffffffffffffffffffffffffffffff168373ffffffffffffffffffffffffffffffffffffffff161415801561258457508273ffffffffffffffffffffffffffffffffffffffff168473ffffffffffffffffffffffffffffffffffffffff161480612545575061254484846112fc565b5b8061258357508273ffffffffffffffffffffffffffffffffffffffff1661256b83611657565b73ffffffffffffffffffffffffffffffffffffffff16145b5b90509392505050565b600080600090507a184f03e93ff9f4daa797ed6e38ed64bf6a1f01000000000000000083106125eb577a184f03e93ff9f4daa797ed6e38ed64bf6a1f01000000000000000083816125e1576125e0613df4565b5b0492506040810190505b6d04ee2d6d415b85acef81000000008310612628576d04ee2d6d415b85acef8100000000838161261e5761261d613df4565b5b0492506020810190505b662386f26fc10000831061265757662386f26fc10000838161264d5761264c613df4565b5b0492506010810190505b6305f5e1008310612680576305f5e100838161267657612675613df4565b5b0492506008810190505b61271083106126a557612710838161269b5761269a613df4565b5b0492506004810190505b606483106126c857606483816126be576126bd613df4565b5b0492506002810190505b600a83106126d7576001810190505b80915050919050565b6000604051905090565b600080fd5b600080fd5b60007fffffffff0000000000000000000000000000000000000000000000000000000082169050919050565b612729816126f4565b811461273457600080fd5b50565b60008135905061274681612720565b92915050565b600060208284031215612762576127616126ea565b5b600061277084828501612737565b91505092915050565b60008115159050919050565b61278e81612779565b82525050565b60006020820190506127a96000830184612785565b92915050565b600081519050919050565b600082825260208201905092915050565b60005b838110156127e95780820151818401526020810190506127ce565b60008484015250505050565b6000601f19601f8301169050919050565b6000612811826127af565b61281b81856127ba565b935061282b8185602086016127cb565b612834816127f5565b840191505092915050565b600060208201905081810360008301526128598184612806565b905092915050565b6000819050919050565b61287481612861565b811461287f57600080fd5b50565b6000813590506128918161286b565b92915050565b6000602082840312156128ad576128ac6126ea565b5b60006128bb84828501612882565b91505092915050565b600073ffffffffffffffffffffffffffffffffffffffff82169050919050565b60006128ef826128c4565b9050919050565b6128ff816128e4565b82525050565b600060208201905061291a60008301846128f6565b92915050565b612929816128e4565b811461293457600080fd5b50565b60008135905061294681612920565b92915050565b60008060408385031215612963576129626126ea565b5b600061297185828601612937565b925050602061298285828601612882565b9150509250929050565b61299581612861565b82525050565b60006020820190506129b0600083018461298c565b92915050565b600080fd5b600080fd5b7f4e487b7100000000000000000000000000000000000000000000000000000000600052604160045260246000fd5b6129f8826127f5565b810181811067ffffffffffffffff82111715612a1757612a166129c0565b5b80604052505050565b6000612a2a6126e0565b9050612a3682826129ef565b919050565b600067ffffffffffffffff821115612a5657612a556129c0565b5b612a5f826127f5565b9050602081019050919050565b82818337600083830152505050565b6000612a8e612a8984612a3b565b612a20565b905082815260208101848484011115612aaa57612aa96129bb565b5b612ab5848285612a6c565b509392505050565b600082601f830112612ad257612ad16129b6565b5b8135612ae2848260208601612a7b565b91505092915050565b600067ffffffffffffffff821115612b0657612b056129c0565b5b612b0f826127f5565b9050602081019050919050565b6000612b2f612b2a84612aeb565b612a20565b905082815260208101848484011115612b4b57612b4a6129bb565b5b612b56848285612a6c565b509392505050565b600082601f830112612b7357612b726129b6565b5b8135612b83848260208601612b1c565b91505092915050565b600080600080600080600080610100898b031215612bad57612bac6126ea565b5b6000612bbb8b828c01612937565b985050602089013567ffffffffffffffff811115612bdc57612bdb6126ef565b5b612be88b828c01612abd565b975050604089013567ffffffffffffffff811115612c0957612c086126ef565b5b612c158b828c01612abd565b965050606089013567ffffffffffffffff811115612c3657612c356126ef565b5b612c428b828c01612abd565b955050608089013567ffffffffffffffff811115612c6357612c626126ef565b5b612c6f8b828c01612abd565b94505060a089013567ffffffffffffffff811115612c9057612c8f6126ef565b5b612c9c8b828c01612abd565b93505060c089013567ffffffffffffffff811115612cbd57612cbc6126ef565b5b612cc98b828c01612abd565b92505060e089013567ffffffffffffffff811115612cea57612ce96126ef565b5b612cf68b828c01612b5e565b9150509295985092959890939650565b600080600060608486031215612d1f57612d1e6126ea565b5b6000612d2d86828701612937565b9350506020612d3e86828701612937565b9250506040612d4f86828701612882565b9150509250925092565b6000819050919050565b612d6c81612d59565b8114612d7757600080fd5b50565b600081359050612d8981612d63565b92915050565b60008060408385031215612da657612da56126ea565b5b6000612db485828601612d7a565b925050602083013567ffffffffffffffff811115612dd557612dd46126ef565b5b612de185828601612b5e565b9150509250929050565b600060c0820190508181036000830152612e058189612806565b90508181036020830152612e198188612806565b90508181036040830152612e2d8187612806565b90508181036060830152612e418186612806565b90508181036080830152612e558185612806565b905081810360a0830152612e698184612806565b9050979650505050505050565b600060208284031215612e8c57612e8b6126ea565b5b6000612e9a84828501612937565b91505092915050565b600060208284031215612eb957612eb86126ea565b5b600082013567ffffffffffffffff811115612ed757612ed66126ef565b5b612ee384828501612abd565b91505092915050565b612ef581612779565b8114612f0057600080fd5b50565b600081359050612f1281612eec565b92915050565b60008060408385031215612f2f57612f2e6126ea565b5b6000612f3d85828601612937565b9250506020612f4e85828601612f03565b9150509250929050565b60008060008060808587031215612f7257612f716126ea565b5b6000612f8087828801612937565b9450506020612f9187828801612937565b9350506040612fa287828801612882565b925050606085013567ffffffffffffffff811115612fc357612fc26126ef565b5b612fcf87828801612b5e565b91505092959194509250565b600080600080600080600080610100898b031215612ffc57612ffb6126ea565b5b600061300a8b828c01612937565b985050602061301b8b828c01612882565b975050604089013567ffffffffffffffff81111561303c5761303b6126ef565b5b6130488b828c01612abd565b965050606089013567ffffffffffffffff811115613069576130686126ef565b5b6130758b828c01612abd565b955050608089013567ffffffffffffffff811115613096576130956126ef565b5b6130a28b828c01612abd565b94505060a089013567ffffffffffffffff8111156130c3576130c26126ef565b5b6130cf8b828c01612abd565b93505060c089013567ffffffffffffffff8111156130f0576130ef6126ef565b5b6130fc8b828c01612abd565b92505060e089013567ffffffffffffffff81111561311d5761311c6126ef565b5b6131298b828c01612abd565b9150509295985092959890939650565b61314281612d59565b82525050565b600060208201905061315d6000830184613139565b92915050565b6000806040838503121561317a576131796126ea565b5b600061318885828601612937565b925050602061319985828601612937565b9150509250929050565b600080fd5b600080fd5b600060c082840312156131c3576131c26131a3565b5b6131cd60c0612a20565b9050600082013567ffffffffffffffff8111156131ed576131ec6131a8565b5b6131f984828501612abd565b600083015250602082013567ffffffffffffffff81111561321d5761321c6131a8565b5b61322984828501612abd565b602083015250604082013567ffffffffffffffff81111561324d5761324c6131a8565b5b61325984828501612abd565b604083015250606082013567ffffffffffffffff81111561327d5761327c6131a8565b5b61328984828501612abd565b606083015250608082013567ffffffffffffffff8111156132ad576132ac6131a8565b5b6132b984828501612abd565b60808301525060a082013567ffffffffffffffff8111156132dd576132dc6131a8565b5b6132e984828501612abd565b60a08301525092915050565b6000806040838503121561330c5761330b6126ea565b5b600061331a85828601612882565b925050602083013567ffffffffffffffff81111561333b5761333a6126ef565b5b613347858286016131ad565b9150509250929050565b600060208284031215613367576133666126ea565b5b600061337584828501612d7a565b91505092915050565b7f4e487b7100000000000000000000000000000000000000000000000000000000600052602260045260246000fd5b600060028204905060018216806133c557607f821691505b6020821081036133d8576133d761337e565b5b50919050565b7f4e6f7420454f4100000000000000000000000000000000000000000000000000600082015250565b60006134146007836127ba565b915061341f826133de565b602082019050919050565b6000602082019050818103600083015261344381613407565b9050919050565b7f496e76616c6964207369676e6174757265000000000000000000000000000000600082015250565b60006134806011836127ba565b915061348b8261344a565b602082019050919050565b600060208201905081810360008301526134af81613473565b9050919050565b7f416c7265616479206d696e746564210000000000000000000000000000000000600082015250565b60006134ec600f836127ba565b91506134f7826134b6565b602082019050919050565b6000602082019050818103600083015261351b816134df565b9050919050565b7f63657274696669636174652f0000000000000000000000000000000000000000815250565b600081905092915050565b600061355e826127af565b6135688185613548565b93506135788185602086016127cb565b80840191505092915050565b7f2d00000000000000000000000000000000000000000000000000000000000000815250565b7f2e706e6700000000000000000000000000000000000000000000000000000000815250565b60006135db82613522565b600c820191506135eb8285613553565b91506135f682613584565b6001820191506136068284613553565b9150613611826135aa565b6004820191508190509392505050565b60008190508160005260206000209050919050565b60006020601f8301049050919050565b600082821b905092915050565b6000600883026136837fffffffffffffffffffffffffffffffffffffffffffffffffffffffffffffffff82613646565b61368d8683613646565b95508019841693508086168417925050509392505050565b6000819050919050565b60006136ca6136c56136c084612861565b6136a5565b612861565b9050919050565b6000819050919050565b6136e4836136af565b6136f86136f0826136d1565b848454613653565b825550505050565b600090565b61370d613700565b6137188184846136db565b505050565b5b8181101561373c57613731600082613705565b60018101905061371e565b5050565b601f8211156137815761375281613621565b61375b84613636565b8101602085101561376a578190505b61377e61377685613636565b83018261371d565b50505b505050565b600082821c905092915050565b60006137a460001984600802613786565b1980831691505092915050565b60006137bd8383613793565b9150826002028217905092915050565b6137d6826127af565b67ffffffffffffffff8111156137ef576137ee6129c0565b5b6137f982546133ad565b613804828285613740565b600060209050601f8311600181146138375760008415613825578287015190505b61382f85826137b1565b865550613897565b601f19841661384586613621565b60005b8281101561386d57848901518255600182019150602085019450602081019050613848565b8683101561388a5784890151613886601f891682613793565b8355505b6001600288020188555050505b505050505050565b600082825260208201905092915050565b60006138bb826127af565b6138c5818561389f565b93506138d58185602086016127cb565b6138de816127f5565b840191505092915050565b600060c083016000830151848203600086015261390682826138b0565b9150506020830151848203602086015261392082826138b0565b9150506040830151848203604086015261393a82826138b0565b9150506060830151848203606086015261395482826138b0565b9150506080830151848203608086015261396e82826138b0565b91505060a083015184820360a086015261398882826138b0565b9150508091505092915050565b60006060820190506139aa60008301866128f6565b6139b7602083018561298c565b81810360408301526139c981846138e9565b9050949350505050565b7f4e487b7100000000000000000000000000000000000000000000000000000000600052601160045260246000fd5b6000613a0d82612861565b91507fffffffffffffffffffffffffffffffffffffffffffffffffffffffffffffffff8203613a3f57613a3e6139d3565b5b600182019050919050565b6000606082019050613a5f60008301866128f6565b613a6c602083018561298c565b613a7960408301846128f6565b949350505050565b6000613a8d8285613553565b9150613a998284613553565b91508190509392505050565b60008160601b9050919050565b6000613abd82613aa5565b9050919050565b6000613acf82613ab2565b9050919050565b613ae7613ae2826128e4565b613ac4565b82525050565b6000819050919050565b613b08613b0382612861565b613aed565b82525050565b6000613b1a828b613ad6565b601482019150613b2a828a613af7565b602082019150613b3a8289613553565b9150613b468288613553565b9150613b528287613553565b9150613b5e8286613553565b9150613b6a8285613553565b9150613b768284613553565b91508190509998505050505050505050565b7f19457468657265756d205369676e6564204d6573736167653a0a333200000000600082015250565b6000613bbe601c83613548565b9150613bc982613b88565b601c82019050919050565b6000819050919050565b613bef613bea82612d59565b613bd4565b82525050565b6000613c0082613bb1565b9150613c0c8284613bde565b60208201915081905092915050565b600081519050919050565b600082825260208201905092915050565b6000613c4282613c1b565b613c4c8185613c26565b9350613c5c8185602086016127cb565b613c65816127f5565b840191505092915050565b6000608082019050613c8560008301876128f6565b613c9260208301866128f6565b613c9f604083018561298c565b8181036060830152613cb18184613c37565b905095945050505050565b600081519050613ccb81612720565b92915050565b600060208284031215613ce757613ce66126ea565b5b6000613cf584828501613cbc565b91505092915050565b6000604082019050613d1360008301856128f6565b613d20602083018461298c565b9392505050565b7f696e76616c6964207369676e6174757265206c656e6774680000000000000000600082015250565b6000613d5d6018836127ba565b9150613d6882613d27565b602082019050919050565b60006020820190508181036000830152613d8c81613d50565b9050919050565b600060ff82169050919050565b613da981613d93565b82525050565b6000608082019050613dc46000830187613139565b613dd16020830186613da0565b613dde6040830185613139565b613deb6060830184613139565b95945050505050565b7f4e487b7100000000000000000000000000000000000000000000000000000000600052601260045260246000fdfea26469706673582212205ce83f665f4fa020a0d652bf345107f07040461aed9bf73beeba5421ea02931564736f6c63430008140033",
  "linkReferences": {},
  "deployedLinkReferences": {}
}