{
  "_format": "hh-sol-artifact-1",
  "contractName": "Launchpad",
  "sourceName": "contracts/Launchpad.sol",
  "abi": [
    {
      "inputs": [],
      "stateMutability": "nonpayable",
      "type": "constructor"
    },
    {
      "inputs": [
        {
          "internalType": "address",
          "name": "target",
          "type": "address"
        }
      ],
      "name": "AddressEmptyCode",
      "type": "error"
    },
    {
      "inputs": [
        {
          "internalType": "address",
          "name": "account",
          "type": "address"
        }
      ],
      "name": "AddressInsufficientBalance",
      "type": "error"
    },
    {
      "inputs": [],
      "name": "FailedInnerCall",
      "type": "error"
    },
    {
      "inputs": [
        {
          "internalType": "address",
          "name": "token",
          "type": "address"
        }
      ],
      "name": "SafeERC20FailedOperation",
      "type": "error"
    },
    {
      "anonymous": false,
      "inputs": [
        {
          "indexed": true,
          "internalType": "uint256",
          "name": "launchpadId",
          "type": "uint256"
        },
        {
          "indexed": true,
          "internalType": "address",
          "name": "launchedAddress",
          "type": "address"
        },
        {
          "indexed": true,
          "internalType": "uint256",
          "name": "chainID",
          "type": "uint256"
        }
      ],
      "name": "AddLaunchpad",
      "type": "event"
    },
    {
      "anonymous": false,
      "inputs": [
        {
          "indexed": true,
          "internalType": "address",
          "name": "user",
          "type": "address"
        },
        {
          "indexed": true,
          "internalType": "uint256",
          "name": "launchpadId",
          "type": "uint256"
        },
        {
          "indexed": true,
          "internalType": "uint256",
          "name": "points",
          "type": "uint256"
        },
        {
          "indexed": false,
          "internalType": "address",
          "name": "token",
          "type": "address"
        },
        {
          "indexed": false,
          "internalType": "uint256",
          "name": "amount",
          "type": "uint256"
        },
        {
          "indexed": false,
          "internalType": "uint256",
          "name": "timestamp",
          "type": "uint256"
        },
        {
          "indexed": false,
          "internalType": "uint256",
          "name": "chainID",
          "type": "uint256"
        }
      ],
      "name": "Claimed",
      "type": "event"
    },
    {
      "anonymous": false,
      "inputs": [
        {
          "indexed": true,
          "internalType": "address",
          "name": "user",
          "type": "address"
        },
        {
          "indexed": true,
          "internalType": "uint256",
          "name": "launchpadId",
          "type": "uint256"
        },
        {
          "indexed": true,
          "internalType": "uint256",
          "name": "index",
          "type": "uint256"
        },
        {
          "indexed": false,
          "internalType": "address",
          "name": "token",
          "type": "address"
        },
        {
          "indexed": false,
          "internalType": "uint256",
          "name": "amount",
          "type": "uint256"
        },
        {
          "indexed": false,
          "internalType": "uint256",
          "name": "timestamp",
          "type": "uint256"
        },
        {
          "indexed": false,
          "internalType": "uint256",
          "name": "chainID",
          "type": "uint256"
        }
      ],
      "name": "Staked",
      "type": "event"
    },
    {
      "anonymous": false,
      "inputs": [
        {
          "indexed": true,
          "internalType": "address",
          "name": "user",
          "type": "address"
        },
        {
          "indexed": true,
          "internalType": "uint256",
          "name": "launchpadId",
          "type": "uint256"
        },
        {
          "indexed": true,
          "internalType": "uint256",
          "name": "index",
          "type": "uint256"
        },
        {
          "indexed": false,
          "internalType": "address",
          "name": "token",
          "type": "address"
        },
        {
          "indexed": false,
          "internalType": "uint256",
          "name": "amount",
          "type": "uint256"
        },
        {
          "indexed": false,
          "internalType": "uint256",
          "name": "timestamp",
          "type": "uint256"
        },
        {
          "indexed": false,
          "internalType": "uint256",
          "name": "chainID",
          "type": "uint256"
        }
      ],
      "name": "UnStaked",
      "type": "event"
    },
    {
      "inputs": [
        {
          "internalType": "uint256",
          "name": "",
          "type": "uint256"
        },
        {
          "internalType": "address",
          "name": "",
          "type": "address"
        },
        {
          "internalType": "uint256",
          "name": "",
          "type": "uint256"
        }
      ],
      "name": "UserChecks",
      "outputs": [
        {
          "internalType": "uint256",
          "name": "timestamp",
          "type": "uint256"
        },
        {
          "internalType": "uint256",
          "name": "staked",
          "type": "uint256"
        }
      ],
      "stateMutability": "view",
      "type": "function"
    },
    {
      "inputs": [
        {
          "internalType": "string",
          "name": "_name",
          "type": "string"
        },
        {
          "internalType": "contract ERC20",
          "name": "_stakeToken",
          "type": "address"
        },
        {
          "internalType": "contract ERC20",
          "name": "_launchedToken",
          "type": "address"
        },
        {
          "internalType": "uint32",
          "name": "_startTime",
          "type": "uint32"
        },
        {
          "internalType": "uint32",
          "name": "_endTime",
          "type": "uint32"
        },
        {
          "internalType": "uint256",
          "name": "_chainID",
          "type": "uint256"
        },
        {
          "internalType": "address",
          "name": "_stakingAddress",
          "type": "address"
        },
        {
          "internalType": "address",
          "name": "_launchedAddress",
          "type": "address"
        },
        {
          "internalType": "uint256",
          "name": "_LowStakingAmount",
          "type": "uint256"
        },
        {
          "internalType": "uint256",
          "name": "_totalAllocation",
          "type": "uint256"
        }
      ],
      "name": "addLaunchpad",
      "outputs": [],
      "stateMutability": "nonpayable",
      "type": "function"
    },
    {
      "inputs": [
        {
          "internalType": "address",
          "name": "_whiltAddress",
          "type": "address"
        }
      ],
      "name": "addWhiltAddress",
      "outputs": [],
      "stateMutability": "nonpayable",
      "type": "function"
    },
    {
      "inputs": [
        {
          "internalType": "uint256",
          "name": "_launchpadId",
          "type": "uint256"
        },
        {
          "internalType": "string",
          "name": "_name",
          "type": "string"
        }
      ],
      "name": "changeLaunchpadName",
      "outputs": [],
      "stateMutability": "nonpayable",
      "type": "function"
    },
    {
      "inputs": [
        {
          "internalType": "uint256",
          "name": "_launchpadId",
          "type": "uint256"
        },
        {
          "internalType": "bool",
          "name": "_status",
          "type": "bool"
        }
      ],
      "name": "changeLaunchpadStatus",
      "outputs": [],
      "stateMutability": "nonpayable",
      "type": "function"
    },
    {
      "inputs": [
        {
          "internalType": "uint256",
          "name": "_launchpadId",
          "type": "uint256"
        },
        {
          "internalType": "uint256",
          "name": "_pointsAmount",
          "type": "uint256"
        },
        {
          "internalType": "bytes32[]",
          "name": "proof",
          "type": "bytes32[]"
        }
      ],
      "name": "claimOfSameChain",
      "outputs": [],
      "stateMutability": "nonpayable",
      "type": "function"
    },
    {
      "inputs": [
        {
          "internalType": "uint256",
          "name": "",
          "type": "uint256"
        },
        {
          "internalType": "address",
          "name": "",
          "type": "address"
        }
      ],
      "name": "exchangeAmount",
      "outputs": [
        {
          "internalType": "uint256",
          "name": "",
          "type": "uint256"
        }
      ],
      "stateMutability": "view",
      "type": "function"
    },
    {
      "inputs": [
        {
          "internalType": "address",
          "name": "_user",
          "type": "address"
        }
      ],
      "name": "getExchangeAmount",
      "outputs": [
        {
          "internalType": "uint256",
          "name": "",
          "type": "uint256"
        }
      ],
      "stateMutability": "view",
      "type": "function"
    },
    {
      "inputs": [
        {
          "internalType": "uint256",
          "name": "",
          "type": "uint256"
        },
        {
          "internalType": "address",
          "name": "",
          "type": "address"
        }
      ],
      "name": "isExchanged",
      "outputs": [
        {
          "internalType": "bool",
          "name": "",
          "type": "bool"
        }
      ],
      "stateMutability": "view",
      "type": "function"
    },
    {
      "inputs": [
        {
          "internalType": "uint256",
          "name": "",
          "type": "uint256"
        },
        {
          "internalType": "address",
          "name": "",
          "type": "address"
        }
      ],
      "name": "launchpadOfWhiltaddress",
      "outputs": [
        {
          "internalType": "bool",
          "name": "",
          "type": "bool"
        }
      ],
      "stateMutability": "view",
      "type": "function"
    },
    {
      "inputs": [
        {
          "internalType": "uint256",
          "name": "",
          "type": "uint256"
        }
      ],
      "name": "launchpads",
      "outputs": [
        {
          "internalType": "string",
          "name": "name",
          "type": "string"
        },
        {
          "internalType": "uint32",
          "name": "startTime",
          "type": "uint32"
        },
        {
          "internalType": "uint32",
          "name": "endTime",
          "type": "uint32"
        },
        {
          "internalType": "uint32",
          "name": "LowStakingTime",
          "type": "uint32"
        },
        {
          "internalType": "uint256",
          "name": "chainID",
          "type": "uint256"
        },
        {
          "internalType": "uint256",
          "name": "LowStakingAmount",
          "type": "uint256"
        },
        {
          "internalType": "address",
          "name": "stakingAddress",
          "type": "address"
        },
        {
          "internalType": "address",
          "name": "launchedAddress",
          "type": "address"
        },
        {
          "internalType": "uint256",
          "name": "totalAllocation",
          "type": "uint256"
        }
      ],
      "stateMutability": "view",
      "type": "function"
    },
    {
      "inputs": [
        {
          "internalType": "uint256",
          "name": "",
          "type": "uint256"
        }
      ],
      "name": "merkleRoot",
      "outputs": [
        {
          "internalType": "bytes32",
          "name": "",
          "type": "bytes32"
        }
      ],
      "stateMutability": "view",
      "type": "function"
    },
    {
      "inputs": [
        {
          "internalType": "address",
          "name": "_whiltAddress",
          "type": "address"
        }
      ],
      "name": "removeWhiltAddress",
      "outputs": [],
      "stateMutability": "nonpayable",
      "type": "function"
    },
    {
      "inputs": [
        {
          "internalType": "uint256",
          "name": "_launchpadId",
          "type": "uint256"
        },
        {
          "internalType": "address[]",
          "name": "_administrator",
          "type": "address[]"
        }
      ],
      "name": "setLaunchpadAdministrator",
      "outputs": [],
      "stateMutability": "nonpayable",
      "type": "function"
    },
    {
      "inputs": [
        {
          "internalType": "uint256",
          "name": "_launchpadId",
          "type": "uint256"
        },
        {
          "internalType": "address",
          "name": "_launchedAddress",
          "type": "address"
        }
      ],
      "name": "setLaunchpadLaunchedAddress",
      "outputs": [],
      "stateMutability": "nonpayable",
      "type": "function"
    },
    {
      "inputs": [
        {
          "internalType": "uint256",
          "name": "_launchpadId",
          "type": "uint256"
        },
        {
          "internalType": "uint32",
          "name": "_LowStakingTime",
          "type": "uint32"
        }
      ],
      "name": "setLaunchpadLowStakingTime",
      "outputs": [],
      "stateMutability": "nonpayable",
      "type": "function"
    },
    {
      "inputs": [
        {
          "internalType": "uint256",
          "name": "_launchpadId",
          "type": "uint256"
        },
        {
          "internalType": "uint256",
          "name": "_totalPoints",
          "type": "uint256"
        },
        {
          "internalType": "bytes32",
          "name": "_root",
          "type": "bytes32"
        }
      ],
      "name": "setLaunchpadRoot",
      "outputs": [],
      "stateMutability": "nonpayable",
      "type": "function"
    },
    {
      "inputs": [
        {
          "internalType": "uint256",
          "name": "_launchpadId",
          "type": "uint256"
        },
        {
          "internalType": "address",
          "name": "_stakingAddress",
          "type": "address"
        }
      ],
      "name": "setLaunchpadStakingAddress",
      "outputs": [],
      "stateMutability": "nonpayable",
      "type": "function"
    },
    {
      "inputs": [
        {
          "internalType": "uint256",
          "name": "_launchpadId",
          "type": "uint256"
        },
        {
          "internalType": "uint256",
          "name": "_amount",
          "type": "uint256"
        }
      ],
      "name": "stake",
      "outputs": [],
      "stateMutability": "nonpayable",
      "type": "function"
    },
    {
      "inputs": [
        {
          "internalType": "uint256",
          "name": "",
          "type": "uint256"
        }
      ],
      "name": "totalPoints",
      "outputs": [
        {
          "internalType": "uint256",
          "name": "",
          "type": "uint256"
        }
      ],
      "stateMutability": "view",
      "type": "function"
    },
    {
      "inputs": [
        {
          "internalType": "uint256",
          "name": "",
          "type": "uint256"
        }
      ],
      "name": "trackCheckpoints",
      "outputs": [
        {
          "internalType": "contract ERC20",
          "name": "stakeToken",
          "type": "address"
        },
        {
          "internalType": "contract ERC20",
          "name": "launchedToken",
          "type": "address"
        },
        {
          "internalType": "bool",
          "name": "allowsWithdraw",
          "type": "bool"
        },
        {
          "internalType": "uint256",
          "name": "timestamp",
          "type": "uint256"
        },
        {
          "internalType": "uint256",
          "name": "totalStaked",
          "type": "uint256"
        },
        {
          "internalType": "bool",
          "name": "status",
          "type": "bool"
        }
      ],
      "stateMutability": "view",
      "type": "function"
    },
    {
      "inputs": [
        {
          "internalType": "uint256",
          "name": "_launchpadId",
          "type": "uint256"
        },
        {
          "internalType": "uint256",
          "name": "_index",
          "type": "uint256"
        }
      ],
      "name": "unstake",
      "outputs": [],
      "stateMutability": "nonpayable",
      "type": "function"
    },
    {
      "inputs": [
        {
          "internalType": "uint256",
          "name": "_launchpadId",
          "type": "uint256"
        },
        {
          "internalType": "bool",
          "name": "_status",
          "type": "bool"
        }
      ],
      "name": "updateAllowsWithdraw",
      "outputs": [],
      "stateMutability": "nonpayable",
      "type": "function"
    },
    {
      "inputs": [
        {
          "internalType": "uint256",
          "name": "_launchpadId",
          "type": "uint256"
        },
        {
          "internalType": "bool",
          "name": "_status",
          "type": "bool"
        }
      ],
      "name": "updateLaunchpadStatus",
      "outputs": [],
      "stateMutability": "nonpayable",
      "type": "function"
    },
    {
      "inputs": [
        {
          "internalType": "uint256",
          "name": "",
          "type": "uint256"
        },
        {
          "internalType": "address",
          "name": "",
          "type": "address"
        }
      ],
      "name": "userCheckpointCounts",
      "outputs": [
        {
          "internalType": "uint256",
          "name": "",
          "type": "uint256"
        }
      ],
      "stateMutability": "view",
      "type": "function"
    },
    {
      "inputs": [
        {
          "internalType": "bytes32",
          "name": "root",
          "type": "bytes32"
        },
        {
          "internalType": "bytes32[]",
          "name": "proof",
          "type": "bytes32[]"
        },
        {
          "internalType": "address",
          "name": "addr",
          "type": "address"
        },
        {
          "internalType": "uint256",
          "name": "amount",
          "type": "uint256"
        }
      ],
      "name": "verify",
      "outputs": [
        {
          "internalType": "bool",
          "name": "",
          "type": "bool"
        }
      ],
      "stateMutability": "pure",
      "type": "function"
    },
    {
      "inputs": [
        {
          "internalType": "address",
          "name": "",
          "type": "address"
        }
      ],
      "name": "whiltAddress",
      "outputs": [
        {
          "internalType": "bool",
          "name": "",
          "type": "bool"
        }
      ],
      "stateMutability": "view",
      "type": "function"
    }
  ],
  "bytecode": "0x608060405234801561001057600080fd5b506001600560003373ffffffffffffffffffffffffffffffffffffffff1673ffffffffffffffffffffffffffffffffffffffff16815260200190815260200160002060006101000a81548160ff02191690831515021790555061527c806100786000396000f3fe608060405234801561001057600080fd5b50600436106101a95760003560e01c80637b0472f0116100f95780639fd6abac11610097578063e4dd035611610071578063e4dd035614610530578063f830efd21461054c578063fa66181d14610568578063fb924b4e14610584576101a9565b80639fd6abac146104c8578063cff144f7146104e4578063df2ccd0514610514576101a9565b80639136a4da116100d35780639136a4da1461041757806398d13fff146104475780639ae407121461047c5780639e2c8a5b146104ac576101a9565b80637b0472f01461039a5780637e3cd963146103b657806385aea83d146103e6576101a9565b8063313a249b116101665780634199b2ad116101405780634199b2ad146102fa57806359917db01461032a5780635b85972c146103465780635be5f0bc14610362576101a9565b8063313a249b1461026a5780633befec661461029a5780633c70b357146102ca576101a9565b80630cbaff5d146101ae5780631c0329d5146101de5780632213ec1b146101fa57806324467afd146102165780632775d619146102325780632b7dd0da1461024e575b600080fd5b6101c860048036038101906101c391906134e4565b6105a0565b6040516101d5919061352c565b60405180910390f35b6101f860048036038101906101f391906135b3565b6105c0565b005b610214600480360381019061020f9190613642565b610785565b005b610230600480360381019061022b91906136e7565b610938565b005b61024c600480360381019061024791906134e4565b610b0b565b005b6102686004803603810190610263919061379d565b610bd5565b005b610284600480360381019061027f91906137fd565b610d8c565b6040516102919190613839565b60405180910390f35b6102b460048036038101906102af9190613854565b610da4565b6040516102c1919061352c565b60405180910390f35b6102e460048036038101906102df91906137fd565b610dd3565b6040516102f191906138a3565b60405180910390f35b610314600480360381019061030f9190613854565b610deb565b604051610321919061352c565b60405180910390f35b610344600480360381019061033f9190613a0d565b610e1a565b005b610360600480360381019061035b9190613854565b611405565b005b61037c600480360381019061037791906137fd565b61162e565b60405161039199989796959493929190613b19565b60405180910390f35b6103b460048036038101906103af9190613bad565b611784565b005b6103d060048036038101906103cb9190613854565b611e92565b6040516103dd9190613839565b60405180910390f35b61040060048036038101906103fb9190613bed565b611eb7565b60405161040e929190613c40565b60405180910390f35b610431600480360381019061042c9190613854565b611ef5565b60405161043e9190613839565b60405180910390f35b610461600480360381019061045c91906137fd565b611f1a565b60405161047396959493929190613cc8565b60405180910390f35b610496600480360381019061049191906134e4565b611fb0565b6040516104a39190613839565b60405180910390f35b6104c660048036038101906104c19190613bad565b61200e565b005b6104e260048036038101906104dd9190613854565b6124ba565b005b6104fe60048036038101906104f99190613d29565b6126e3565b60405161050b919061352c565b60405180910390f35b61052e60048036038101906105299190613dd8565b61275f565b005b61054a60048036038101906105459190613dd8565b612899565b005b61056660048036038101906105619190613e56565b6129d3565b005b610582600480360381019061057d9190613dd8565b612e53565b005b61059e600480360381019061059991906134e4565b612f8d565b005b60056020528060005260406000206000915054906101000a900460ff1681565b826001600082815260200190815260200160002060003373ffffffffffffffffffffffffffffffffffffffff1673ffffffffffffffffffffffffffffffffffffffff16815260200190815260200160002060009054906101000a900460ff1661065e576040517f08c379a000000000000000000000000000000000000000000000000000000000815260040161065590613fc8565b60405180910390fd5b6000801b6006600086815260200190815260200160002054146106b6576040517f08c379a00000000000000000000000000000000000000000000000000000000081526004016106ad90614034565b60405180910390fd5b600060076000868152602001908152602001600020541461070c576040517f08c379a0000000000000000000000000000000000000000000000000000000008152600401610703906140c6565b60405180910390fd5b6000831161074f576040517f08c379a000000000000000000000000000000000000000000000000000000000815260040161074690614132565b60405180910390fd5b81600660008681526020019081526020016000208190555082600760008681526020019081526020016000208190555050505050565b816001600082815260200190815260200160002060003373ffffffffffffffffffffffffffffffffffffffff1673ffffffffffffffffffffffffffffffffffffffff16815260200190815260200160002060009054906101000a900460ff16610823576040517f08c379a000000000000000000000000000000000000000000000000000000000815260040161081a90613fc8565b60405180910390fd5b8163ffffffff166000848154811061083e5761083d614152565b5b906000526020600020906007020160010160089054906101000a900463ffffffff1663ffffffff16036108a6576040517f08c379a000000000000000000000000000000000000000000000000000000000815260040161089d906141cd565b60405180910390fd5b60008263ffffffff16116108ef576040517f08c379a00000000000000000000000000000000000000000000000000000000081526004016108e690614239565b60405180910390fd5b816000848154811061090457610903614152565b5b906000526020600020906007020160010160086101000a81548163ffffffff021916908363ffffffff160217905550505050565b826001600082815260200190815260200160002060003373ffffffffffffffffffffffffffffffffffffffff1673ffffffffffffffffffffffffffffffffffffffff16815260200190815260200160002060009054906101000a900460ff166109d6576040517f08c379a00000000000000000000000000000000000000000000000000000000081526004016109cd90613fc8565b60405180910390fd5b82826040516020016109e9929190614298565b6040516020818303038152906040528051906020012060008581548110610a1357610a12614152565b5b9060005260206000209060070201600001604051602001610a3491906143a9565b6040516020818303038152906040528051906020012003610a8a576040517f08c379a0000000000000000000000000000000000000000000000000000000008152600401610a819061440c565b60405180910390fd5b60008383905011610ad0576040517f08c379a0000000000000000000000000000000000000000000000000000000008152600401610ac790614478565b60405180910390fd5b828260008681548110610ae657610ae5614152565b5b90600052602060002090600702016000019182610b04929190614630565b5050505050565b600073ffffffffffffffffffffffffffffffffffffffff168173ffffffffffffffffffffffffffffffffffffffff1603610b7a576040517f08c379a0000000000000000000000000000000000000000000000000000000008152600401610b719061474c565b60405180910390fd5b6001600560008373ffffffffffffffffffffffffffffffffffffffff1673ffffffffffffffffffffffffffffffffffffffff16815260200190815260200160002060006101000a81548160ff02191690831515021790555050565b600560003373ffffffffffffffffffffffffffffffffffffffff1673ffffffffffffffffffffffffffffffffffffffff16815260200190815260200160002060009054906101000a900460ff16610c61576040517f08c379a0000000000000000000000000000000000000000000000000000000008152600401610c58906147de565b60405180910390fd5b60005b82829050811015610d86576000838383818110610c8457610c83614152565b5b9050602002016020810190610c9991906134e4565b9050600073ffffffffffffffffffffffffffffffffffffffff168173ffffffffffffffffffffffffffffffffffffffff1603610d0a576040517f08c379a0000000000000000000000000000000000000000000000000000000008152600401610d019061484a565b60405180910390fd5b600180600087815260200190815260200160002060008373ffffffffffffffffffffffffffffffffffffffff1673ffffffffffffffffffffffffffffffffffffffff16815260200190815260200160002060006101000a81548160ff021916908315150217905550508080610d7e90614899565b915050610c64565b50505050565b60076020528060005260406000206000915090505481565b60026020528160005260406000206020528060005260406000206000915091509054906101000a900460ff1681565b60066020528060005260406000206000915090505481565b60016020528160005260406000206020528060005260406000206000915091509054906101000a900460ff1681565b6000808481548110610e2f57610e2e614152565b5b906000526020600020906007020160405180610120016040529081600082018054610e59906142e0565b80601f0160208091040260200160405190810160405280929190818152602001828054610e85906142e0565b8015610ed25780601f10610ea757610100808354040283529160200191610ed2565b820191906000526020600020905b815481529060010190602001808311610eb557829003601f168201915b505050505081526020016001820160009054906101000a900463ffffffff1663ffffffff1663ffffffff1681526020016001820160049054906101000a900463ffffffff1663ffffffff1663ffffffff1681526020016001820160089054906101000a900463ffffffff1663ffffffff1663ffffffff16815260200160028201548152602001600382015481526020016004820160009054906101000a900473ffffffffffffffffffffffffffffffffffffffff1673ffffffffffffffffffffffffffffffffffffffff1673ffffffffffffffffffffffffffffffffffffffff1681526020016005820160009054906101000a900473ffffffffffffffffffffffffffffffffffffffff1673ffffffffffffffffffffffffffffffffffffffff1673ffffffffffffffffffffffffffffffffffffffff1681526020016006820154815250509050600060036000868152602001908152602001600020905046826080015114611076576040517f08c379a000000000000000000000000000000000000000000000000000000000815260040161106d9061492d565b60405180910390fd5b61109560066000878152602001908152602001600020548433876126e3565b6110d4576040517f08c379a00000000000000000000000000000000000000000000000000000000081526004016110cb90614999565b60405180910390fd5b8060010160149054906101000a900460ff166110ef57600080fd5b816040015163ffffffff16421080156111115750816020015163ffffffff1642115b611150576040517f08c379a000000000000000000000000000000000000000000000000000000000815260040161114790614a05565b60405180910390fd5b8060040160009054906101000a900460ff166111a1576040517f08c379a000000000000000000000000000000000000000000000000000000000815260040161119890614a05565b60405180910390fd5b6002600086815260200190815260200160002060003373ffffffffffffffffffffffffffffffffffffffff1673ffffffffffffffffffffffffffffffffffffffff16815260200190815260200160002060009054906101000a900460ff161561123f576040517f08c379a000000000000000000000000000000000000000000000000000000000815260040161123690614a71565b60405180910390fd5b60008261010001516007600088815260200190815260200160002054866112669190614ac0565b6112709190614af1565b90506112c133828460010160009054906101000a900473ffffffffffffffffffffffffffffffffffffffff1673ffffffffffffffffffffffffffffffffffffffff166130749092919063ffffffff16565b806004600088815260200190815260200160002060003373ffffffffffffffffffffffffffffffffffffffff1673ffffffffffffffffffffffffffffffffffffffff1681526020019081526020016000208190555084863373ffffffffffffffffffffffffffffffffffffffff167f5221c999ce62b24027886db28e488ab139507cd446c6146da9a8c858c6560de18560010160009054906101000a900473ffffffffffffffffffffffffffffffffffffffff168542896080015160405161138c9493929190614b33565b60405180910390a460016002600088815260200190815260200160002060003373ffffffffffffffffffffffffffffffffffffffff1673ffffffffffffffffffffffffffffffffffffffff16815260200190815260200160002060006101000a81548160ff021916908315150217905550505050505050565b816001600082815260200190815260200160002060003373ffffffffffffffffffffffffffffffffffffffff1673ffffffffffffffffffffffffffffffffffffffff16815260200190815260200160002060009054906101000a900460ff166114a3576040517f08c379a000000000000000000000000000000000000000000000000000000000815260040161149a90613fc8565b60405180910390fd5b8173ffffffffffffffffffffffffffffffffffffffff16600084815481106114ce576114cd614152565b5b906000526020600020906007020160040160009054906101000a900473ffffffffffffffffffffffffffffffffffffffff1673ffffffffffffffffffffffffffffffffffffffff1603611556576040517f08c379a000000000000000000000000000000000000000000000000000000000815260040161154d90614bea565b60405180910390fd5b600073ffffffffffffffffffffffffffffffffffffffff168273ffffffffffffffffffffffffffffffffffffffff16036115c5576040517f08c379a00000000000000000000000000000000000000000000000000000000081526004016115bc9061484a565b60405180910390fd5b81600084815481106115da576115d9614152565b5b906000526020600020906007020160040160006101000a81548173ffffffffffffffffffffffffffffffffffffffff021916908373ffffffffffffffffffffffffffffffffffffffff160217905550505050565b6000818154811061163e57600080fd5b9060005260206000209060070201600091509050806000018054611661906142e0565b80601f016020809104026020016040519081016040528092919081815260200182805461168d906142e0565b80156116da5780601f106116af576101008083540402835291602001916116da565b820191906000526020600020905b8154815290600101906020018083116116bd57829003601f168201915b5050505050908060010160009054906101000a900463ffffffff16908060010160049054906101000a900463ffffffff16908060010160089054906101000a900463ffffffff16908060020154908060030154908060040160009054906101000a900473ffffffffffffffffffffffffffffffffffffffff16908060050160009054906101000a900473ffffffffffffffffffffffffffffffffffffffff16908060060154905089565b600080838154811061179957611798614152565b5b9060005260206000209060070201604051806101200160405290816000820180546117c3906142e0565b80601f01602080910402602001604051908101604052809291908181526020018280546117ef906142e0565b801561183c5780601f106118115761010080835404028352916020019161183c565b820191906000526020600020905b81548152906001019060200180831161181f57829003601f168201915b505050505081526020016001820160009054906101000a900463ffffffff1663ffffffff1663ffffffff1681526020016001820160049054906101000a900463ffffffff1663ffffffff1663ffffffff1681526020016001820160089054906101000a900463ffffffff1663ffffffff1663ffffffff16815260200160028201548152602001600382015481526020016004820160009054906101000a900473ffffffffffffffffffffffffffffffffffffffff1673ffffffffffffffffffffffffffffffffffffffff1673ffffffffffffffffffffffffffffffffffffffff1681526020016005820160009054906101000a900473ffffffffffffffffffffffffffffffffffffffff1673ffffffffffffffffffffffffffffffffffffffff1673ffffffffffffffffffffffffffffffffffffffff168152602001600682015481525050905060006003600085815260200190815260200160002090508160a001518310156119e1576040517f08c379a00000000000000000000000000000000000000000000000000000000081526004016119d890614c56565b60405180910390fd5b8060040160009054906101000a900460ff16611a32576040517f08c379a0000000000000000000000000000000000000000000000000000000008152600401611a2990614a05565b60405180910390fd5b828160000160009054906101000a900473ffffffffffffffffffffffffffffffffffffffff1673ffffffffffffffffffffffffffffffffffffffff166370a08231336040518263ffffffff1660e01b8152600401611a909190614c76565b602060405180830381865afa158015611aad573d6000803e3d6000fd5b505050506040513d601f19601f82011682018060405250810190611ad19190614ca6565b1015611b12576040517f08c379a0000000000000000000000000000000000000000000000000000000008152600401611b0990614d1f565b60405180910390fd5b828160000160009054906101000a900473ffffffffffffffffffffffffffffffffffffffff1673ffffffffffffffffffffffffffffffffffffffff1663dd62ed3e33306040518363ffffffff1660e01b8152600401611b72929190614d3f565b602060405180830381865afa158015611b8f573d6000803e3d6000fd5b505050506040513d601f19601f82011682018060405250810190611bb39190614ca6565b1015611bf4576040517f08c379a0000000000000000000000000000000000000000000000000000000008152600401611beb90614dda565b60405180910390fd5b816020015163ffffffff1642118015611c165750816040015163ffffffff1642105b611c55576040517f08c379a0000000000000000000000000000000000000000000000000000000008152600401611c4c90614a05565b60405180910390fd5b6008600085815260200190815260200160002060003373ffffffffffffffffffffffffffffffffffffffff1673ffffffffffffffffffffffffffffffffffffffff1681526020019081526020016000206000815480929190611cb690614899565b919050555060006008600086815260200190815260200160002060003373ffffffffffffffffffffffffffffffffffffffff1673ffffffffffffffffffffffffffffffffffffffff1681526020019081526020016000205490506040518060400160405280428152602001858152506009600087815260200190815260200160002060003373ffffffffffffffffffffffffffffffffffffffff1673ffffffffffffffffffffffffffffffffffffffff16815260200190815260200160002060008381526020019081526020016000206000820151816000015560208201518160010155905050611df2338460c00151868560000160009054906101000a900473ffffffffffffffffffffffffffffffffffffffff1673ffffffffffffffffffffffffffffffffffffffff166130f3909392919063ffffffff16565b83826003016000828254611e069190614dfa565b9250508190555080853373ffffffffffffffffffffffffffffffffffffffff167fc40e88aa6989dbd0da8df1ec625f945be9225f07f444e8ab647568dd76a218878560000160009054906101000a900473ffffffffffffffffffffffffffffffffffffffff1688428960800151604051611e839493929190614b33565b60405180910390a45050505050565b6008602052816000526040600020602052806000526040600020600091509150505481565b600960205282600052604060002060205281600052604060002060205280600052604060002060009250925050508060000154908060010154905082565b6004602052816000526040600020602052806000526040600020600091509150505481565b60036020528060005260406000206000915090508060000160009054906101000a900473ffffffffffffffffffffffffffffffffffffffff16908060010160009054906101000a900473ffffffffffffffffffffffffffffffffffffffff16908060010160149054906101000a900460ff16908060020154908060030154908060040160009054906101000a900460ff16905086565b6000600460008080549050815260200190815260200160002060008373ffffffffffffffffffffffffffffffffffffffff1673ffffffffffffffffffffffffffffffffffffffff168152602001908152602001600020549050919050565b600060036000848152602001908152602001600020905060006009600085815260200190815260200160002060003373ffffffffffffffffffffffffffffffffffffffff1673ffffffffffffffffffffffffffffffffffffffff168152602001908152602001600020600084815260200190815260200160002060405180604001604052908160008201548152602001600182015481525050905060008085815481106120be576120bd614152565b5b9060005260206000209060070201604051806101200160405290816000820180546120e8906142e0565b80601f0160208091040260200160405190810160405280929190818152602001828054612114906142e0565b80156121615780601f1061213657610100808354040283529160200191612161565b820191906000526020600020905b81548152906001019060200180831161214457829003601f168201915b505050505081526020016001820160009054906101000a900463ffffffff1663ffffffff1663ffffffff1681526020016001820160049054906101000a900463ffffffff1663ffffffff1663ffffffff1681526020016001820160089054906101000a900463ffffffff1663ffffffff1663ffffffff16815260200160028201548152602001600382015481526020016004820160009054906101000a900473ffffffffffffffffffffffffffffffffffffffff1673ffffffffffffffffffffffffffffffffffffffff1673ffffffffffffffffffffffffffffffffffffffff1681526020016005820160009054906101000a900473ffffffffffffffffffffffffffffffffffffffff1673ffffffffffffffffffffffffffffffffffffffff1673ffffffffffffffffffffffffffffffffffffffff168152602001600682015481525050905060008260200151116122ef576040517f08c379a00000000000000000000000000000000000000000000000000000000081526004016122e690614e7a565b60405180910390fd5b806060015163ffffffff1682600001514261230a9190614e9a565b101561234b576040517f08c379a000000000000000000000000000000000000000000000000000000000815260040161234290614f1a565b60405180910390fd5b61239e3383602001518560000160009054906101000a900473ffffffffffffffffffffffffffffffffffffffff1673ffffffffffffffffffffffffffffffffffffffff166130749092919063ffffffff16565b81602001518360030160008282546123b69190614e9a565b925050819055506009600086815260200190815260200160002060003373ffffffffffffffffffffffffffffffffffffffff1673ffffffffffffffffffffffffffffffffffffffff16815260200190815260200160002060008581526020019081526020016000206000808201600090556001820160009055505083853373ffffffffffffffffffffffffffffffffffffffff167f4fecc6624197104a130c4a66ed5596b1749ed33b37df80e0afcb949d6db0d28f8660000160009054906101000a900473ffffffffffffffffffffffffffffffffffffffff1686602001514287608001516040516124ab9493929190614b33565b60405180910390a45050505050565b816001600082815260200190815260200160002060003373ffffffffffffffffffffffffffffffffffffffff1673ffffffffffffffffffffffffffffffffffffffff16815260200190815260200160002060009054906101000a900460ff16612558576040517f08c379a000000000000000000000000000000000000000000000000000000000815260040161254f90613fc8565b60405180910390fd5b8173ffffffffffffffffffffffffffffffffffffffff166000848154811061258357612582614152565b5b906000526020600020906007020160050160009054906101000a900473ffffffffffffffffffffffffffffffffffffffff1673ffffffffffffffffffffffffffffffffffffffff160361260b576040517f08c379a000000000000000000000000000000000000000000000000000000000815260040161260290614fac565b60405180910390fd5b600073ffffffffffffffffffffffffffffffffffffffff168273ffffffffffffffffffffffffffffffffffffffff160361267a576040517f08c379a00000000000000000000000000000000000000000000000000000000081526004016126719061484a565b60405180910390fd5b816000848154811061268f5761268e614152565b5b906000526020600020906007020160050160006101000a81548173ffffffffffffffffffffffffffffffffffffffff021916908373ffffffffffffffffffffffffffffffffffffffff160217905550505050565b60008083836040516020016126f9929190614fcc565b6040516020818303038152906040528051906020012060405160200161271f9190615016565b604051602081830303815290604052805190602001209050612742858783613175565b15612751576001915050612757565b60009150505b949350505050565b816001600082815260200190815260200160002060003373ffffffffffffffffffffffffffffffffffffffff1673ffffffffffffffffffffffffffffffffffffffff16815260200190815260200160002060009054906101000a900460ff166127fd576040517f08c379a00000000000000000000000000000000000000000000000000000000081526004016127f490613fc8565b60405180910390fd5b8115156003600085815260200190815260200160002060040160009054906101000a900460ff16151503612866576040517f08c379a000000000000000000000000000000000000000000000000000000000815260040161285d9061507d565b60405180910390fd5b816003600085815260200190815260200160002060040160006101000a81548160ff021916908315150217905550505050565b816001600082815260200190815260200160002060003373ffffffffffffffffffffffffffffffffffffffff1673ffffffffffffffffffffffffffffffffffffffff16815260200190815260200160002060009054906101000a900460ff16612937576040517f08c379a000000000000000000000000000000000000000000000000000000000815260040161292e90613fc8565b60405180910390fd5b8115156003600085815260200190815260200160002060040160009054906101000a900460ff161515036129a0576040517f08c379a00000000000000000000000000000000000000000000000000000000081526004016129979061507d565b60405180910390fd5b816003600085815260200190815260200160002060040160006101000a81548160ff021916908315150217905550505050565b600560003373ffffffffffffffffffffffffffffffffffffffff1673ffffffffffffffffffffffffffffffffffffffff16815260200190815260200160002060009054906101000a900460ff16612a5f576040517f08c379a0000000000000000000000000000000000000000000000000000000008152600401612a56906147de565b60405180910390fd5b60006040518061012001604052808d8d8080601f016020809104026020016040519081016040528093929190818152602001838380828437600081840152601f19601f8201169050808301925050505050505081526020018963ffffffff1681526020018863ffffffff168152602001600063ffffffff1681526020018781526020018481526020018673ffffffffffffffffffffffffffffffffffffffff1681526020018573ffffffffffffffffffffffffffffffffffffffff1681526020018381525090806001815401808255809150506001900390600052602060002090600702016000909190919091506000820151816000019081612b62919061509d565b5060208201518160010160006101000a81548163ffffffff021916908363ffffffff16021790555060408201518160010160046101000a81548163ffffffff021916908363ffffffff16021790555060608201518160010160086101000a81548163ffffffff021916908363ffffffff1602179055506080820151816002015560a0820151816003015560c08201518160040160006101000a81548173ffffffffffffffffffffffffffffffffffffffff021916908373ffffffffffffffffffffffffffffffffffffffff16021790555060e08201518160050160006101000a81548173ffffffffffffffffffffffffffffffffffffffff021916908373ffffffffffffffffffffffffffffffffffffffff160217905550610100820151816006015550506040518060c001604052808a73ffffffffffffffffffffffffffffffffffffffff1681526020018973ffffffffffffffffffffffffffffffffffffffff1681526020016000151581526020014281526020016000815260200160011515815250600360006001600080549050612cfd9190614e9a565b815260200190815260200160002060008201518160000160006101000a81548173ffffffffffffffffffffffffffffffffffffffff021916908373ffffffffffffffffffffffffffffffffffffffff16021790555060208201518160010160006101000a81548173ffffffffffffffffffffffffffffffffffffffff021916908373ffffffffffffffffffffffffffffffffffffffff16021790555060408201518160010160146101000a81548160ff021916908315150217905550606082015181600201556080820151816003015560a08201518160040160006101000a81548160ff021916908315150217905550905050848373ffffffffffffffffffffffffffffffffffffffff166001600080549050612e1a9190614e9a565b7f31aa71eaeac365c420996eee3868cab79ed6660a6fa1a5eda95fe4039ff70b7460405160405180910390a45050505050505050505050565b816001600082815260200190815260200160002060003373ffffffffffffffffffffffffffffffffffffffff1673ffffffffffffffffffffffffffffffffffffffff16815260200190815260200160002060009054906101000a900460ff16612ef1576040517f08c379a0000000000000000000000000000000000000000000000000000000008152600401612ee890613fc8565b60405180910390fd5b8115156003600085815260200190815260200160002060010160149054906101000a900460ff16151503612f5a576040517f08c379a0000000000000000000000000000000000000000000000000000000008152600401612f519061507d565b60405180910390fd5b816003600085815260200190815260200160002060010160146101000a81548160ff021916908315150217905550505050565b600560008273ffffffffffffffffffffffffffffffffffffffff1673ffffffffffffffffffffffffffffffffffffffff16815260200190815260200160002060009054906101000a900460ff16613019576040517f08c379a00000000000000000000000000000000000000000000000000000000081526004016130109061474c565b60405180910390fd5b6000600560008373ffffffffffffffffffffffffffffffffffffffff1673ffffffffffffffffffffffffffffffffffffffff16815260200190815260200160002060006101000a81548160ff02191690831515021790555050565b6130ee838473ffffffffffffffffffffffffffffffffffffffff1663a9059cbb85856040516024016130a7929190614fcc565b604051602081830303815290604052915060e01b6020820180517bffffffffffffffffffffffffffffffffffffffffffffffffffffffff838183161783525050505061318c565b505050565b61316f848573ffffffffffffffffffffffffffffffffffffffff166323b872dd8686866040516024016131289392919061516f565b604051602081830303815290604052915060e01b6020820180517bffffffffffffffffffffffffffffffffffffffffffffffffffffffff838183161783525050505061318c565b50505050565b6000826131828584613223565b1490509392505050565b60006131b7828473ffffffffffffffffffffffffffffffffffffffff1661327990919063ffffffff16565b905060008151141580156131dc5750808060200190518101906131da91906151bb565b155b1561321e57826040517f5274afe70000000000000000000000000000000000000000000000000000000081526004016132159190614c76565b60405180910390fd5b505050565b60008082905060005b845181101561326e576132598286838151811061324c5761324b614152565b5b602002602001015161328f565b9150808061326690614899565b91505061322c565b508091505092915050565b6060613287838360006132ba565b905092915050565b60008183106132a7576132a28284613387565b6132b2565b6132b18383613387565b5b905092915050565b60608147101561330157306040517fcd7860590000000000000000000000000000000000000000000000000000000081526004016132f89190614c76565b60405180910390fd5b6000808573ffffffffffffffffffffffffffffffffffffffff16848660405161332a919061522f565b60006040518083038185875af1925050503d8060008114613367576040519150601f19603f3d011682016040523d82523d6000602084013e61336c565b606091505b509150915061337c86838361339e565b925050509392505050565b600082600052816020526040600020905092915050565b6060826133b3576133ae8261342d565b613425565b600082511480156133db575060008473ffffffffffffffffffffffffffffffffffffffff163b145b1561341d57836040517f9996b3150000000000000000000000000000000000000000000000000000000081526004016134149190614c76565b60405180910390fd5b819050613426565b5b9392505050565b6000815111156134405780518082602001fd5b6040517f1425ea4200000000000000000000000000000000000000000000000000000000815260040160405180910390fd5b6000604051905090565b600080fd5b600080fd5b600073ffffffffffffffffffffffffffffffffffffffff82169050919050565b60006134b182613486565b9050919050565b6134c1816134a6565b81146134cc57600080fd5b50565b6000813590506134de816134b8565b92915050565b6000602082840312156134fa576134f961347c565b5b6000613508848285016134cf565b91505092915050565b60008115159050919050565b61352681613511565b82525050565b6000602082019050613541600083018461351d565b92915050565b6000819050919050565b61355a81613547565b811461356557600080fd5b50565b60008135905061357781613551565b92915050565b6000819050919050565b6135908161357d565b811461359b57600080fd5b50565b6000813590506135ad81613587565b92915050565b6000806000606084860312156135cc576135cb61347c565b5b60006135da86828701613568565b93505060206135eb86828701613568565b92505060406135fc8682870161359e565b9150509250925092565b600063ffffffff82169050919050565b61361f81613606565b811461362a57600080fd5b50565b60008135905061363c81613616565b92915050565b600080604083850312156136595761365861347c565b5b600061366785828601613568565b92505060206136788582860161362d565b9150509250929050565b600080fd5b600080fd5b600080fd5b60008083601f8401126136a7576136a6613682565b5b8235905067ffffffffffffffff8111156136c4576136c3613687565b5b6020830191508360018202830111156136e0576136df61368c565b5b9250929050565b600080600060408486031215613700576136ff61347c565b5b600061370e86828701613568565b935050602084013567ffffffffffffffff81111561372f5761372e613481565b5b61373b86828701613691565b92509250509250925092565b60008083601f84011261375d5761375c613682565b5b8235905067ffffffffffffffff81111561377a57613779613687565b5b6020830191508360208202830111156137965761379561368c565b5b9250929050565b6000806000604084860312156137b6576137b561347c565b5b60006137c486828701613568565b935050602084013567ffffffffffffffff8111156137e5576137e4613481565b5b6137f186828701613747565b92509250509250925092565b6000602082840312156138135761381261347c565b5b600061382184828501613568565b91505092915050565b61383381613547565b82525050565b600060208201905061384e600083018461382a565b92915050565b6000806040838503121561386b5761386a61347c565b5b600061387985828601613568565b925050602061388a858286016134cf565b9150509250929050565b61389d8161357d565b82525050565b60006020820190506138b86000830184613894565b92915050565b6000601f19601f8301169050919050565b7f4e487b7100000000000000000000000000000000000000000000000000000000600052604160045260246000fd5b613907826138be565b810181811067ffffffffffffffff82111715613926576139256138cf565b5b80604052505050565b6000613939613472565b905061394582826138fe565b919050565b600067ffffffffffffffff821115613965576139646138cf565b5b602082029050602081019050919050565b60006139896139848461394a565b61392f565b905080838252602082019050602084028301858111156139ac576139ab61368c565b5b835b818110156139d557806139c1888261359e565b8452602084019350506020810190506139ae565b5050509392505050565b600082601f8301126139f4576139f3613682565b5b8135613a04848260208601613976565b91505092915050565b600080600060608486031215613a2657613a2561347c565b5b6000613a3486828701613568565b9350506020613a4586828701613568565b925050604084013567ffffffffffffffff811115613a6657613a65613481565b5b613a72868287016139df565b9150509250925092565b600081519050919050565b600082825260208201905092915050565b60005b83811015613ab6578082015181840152602081019050613a9b565b60008484015250505050565b6000613acd82613a7c565b613ad78185613a87565b9350613ae7818560208601613a98565b613af0816138be565b840191505092915050565b613b0481613606565b82525050565b613b13816134a6565b82525050565b6000610120820190508181036000830152613b34818c613ac2565b9050613b43602083018b613afb565b613b50604083018a613afb565b613b5d6060830189613afb565b613b6a608083018861382a565b613b7760a083018761382a565b613b8460c0830186613b0a565b613b9160e0830185613b0a565b613b9f61010083018461382a565b9a9950505050505050505050565b60008060408385031215613bc457613bc361347c565b5b6000613bd285828601613568565b9250506020613be385828601613568565b9150509250929050565b600080600060608486031215613c0657613c0561347c565b5b6000613c1486828701613568565b9350506020613c25868287016134cf565b9250506040613c3686828701613568565b9150509250925092565b6000604082019050613c55600083018561382a565b613c62602083018461382a565b9392505050565b6000819050919050565b6000613c8e613c89613c8484613486565b613c69565b613486565b9050919050565b6000613ca082613c73565b9050919050565b6000613cb282613c95565b9050919050565b613cc281613ca7565b82525050565b600060c082019050613cdd6000830189613cb9565b613cea6020830188613cb9565b613cf7604083018761351d565b613d04606083018661382a565b613d11608083018561382a565b613d1e60a083018461351d565b979650505050505050565b60008060008060808587031215613d4357613d4261347c565b5b6000613d518782880161359e565b945050602085013567ffffffffffffffff811115613d7257613d71613481565b5b613d7e878288016139df565b9350506040613d8f878288016134cf565b9250506060613da087828801613568565b91505092959194509250565b613db581613511565b8114613dc057600080fd5b50565b600081359050613dd281613dac565b92915050565b60008060408385031215613def57613dee61347c565b5b6000613dfd85828601613568565b9250506020613e0e85828601613dc3565b9150509250929050565b6000613e23826134a6565b9050919050565b613e3381613e18565b8114613e3e57600080fd5b50565b600081359050613e5081613e2a565b92915050565b60008060008060008060008060008060006101408c8e031215613e7c57613e7b61347c565b5b60008c013567ffffffffffffffff811115613e9a57613e99613481565b5b613ea68e828f01613691565b9b509b50506020613eb98e828f01613e41565b9950506040613eca8e828f01613e41565b9850506060613edb8e828f0161362d565b9750506080613eec8e828f0161362d565b96505060a0613efd8e828f01613568565b95505060c0613f0e8e828f016134cf565b94505060e0613f1f8e828f016134cf565b935050610100613f318e828f01613568565b925050610120613f438e828f01613568565b9150509295989b509295989b9093969950565b7f4c61756e63687061643a2063616c6c6572206973206e6f742061206c61756e6360008201527f687061642061646d696e6973747261746f720000000000000000000000000000602082015250565b6000613fb2603283613a87565b9150613fbd82613f56565b604082019050919050565b60006020820190508181036000830152613fe181613fa5565b9050919050565b7f4c61756e63687061643a20726f6f7420616c7265616479207365740000000000600082015250565b600061401e601b83613a87565b915061402982613fe8565b602082019050919050565b6000602082019050818103600083015261404d81614011565b9050919050565b7f4c61756e63687061643a20746f74616c506f696e747320616c7265616479207360008201527f6574000000000000000000000000000000000000000000000000000000000000602082015250565b60006140b0602283613a87565b91506140bb82614054565b604082019050919050565b600060208201905081810360008301526140df816140a3565b9050919050565b7f4c61756e63687061643a20746f74616c506f696e7473206e6f74207365740000600082015250565b600061411c601e83613a87565b9150614127826140e6565b602082019050919050565b6000602082019050818103600083015261414b8161410f565b9050919050565b7f4e487b7100000000000000000000000000000000000000000000000000000000600052603260045260246000fd5b7f4c61756e63687061643a2074696d65206e6f74206368616e6765640000000000600082015250565b60006141b7601b83613a87565b91506141c282614181565b602082019050919050565b600060208201905081810360008301526141e6816141aa565b9050919050565b7f4c61756e63687061643a20696e76616c69642074696d65000000000000000000600082015250565b6000614223601783613a87565b915061422e826141ed565b602082019050919050565b6000602082019050818103600083015261425281614216565b9050919050565b600081905092915050565b82818337600083830152505050565b600061427f8385614259565b935061428c838584614264565b82840190509392505050565b60006142a5828486614273565b91508190509392505050565b7f4e487b7100000000000000000000000000000000000000000000000000000000600052602260045260246000fd5b600060028204905060018216806142f857607f821691505b60208210810361430b5761430a6142b1565b5b50919050565b60008190508160005260206000209050919050565b60008154614333816142e0565b61433d8186614259565b94506001821660008114614358576001811461436d576143a0565b60ff19831686528115158202860193506143a0565b61437685614311565b60005b8381101561439857815481890152600182019150602081019050614379565b838801955050505b50505092915050565b60006143b58284614326565b915081905092915050565b7f4c61756e63687061643a206e616d65206e6f74206368616e6765640000000000600082015250565b60006143f6601b83613a87565b9150614401826143c0565b602082019050919050565b60006020820190508181036000830152614425816143e9565b9050919050565b7f4c61756e63687061643a20696e76616c6964206e616d65000000000000000000600082015250565b6000614462601783613a87565b915061446d8261442c565b602082019050919050565b6000602082019050818103600083015261449181614455565b9050919050565b600082905092915050565b60006020601f8301049050919050565b600082821b905092915050565b6000600883026144f07fffffffffffffffffffffffffffffffffffffffffffffffffffffffffffffffff826144b3565b6144fa86836144b3565b95508019841693508086168417925050509392505050565b600061452d61452861452384613547565b613c69565b613547565b9050919050565b6000819050919050565b61454783614512565b61455b61455382614534565b8484546144c0565b825550505050565b600090565b614570614563565b61457b81848461453e565b505050565b5b8181101561459f57614594600082614568565b600181019050614581565b5050565b601f8211156145e4576145b581614311565b6145be846144a3565b810160208510156145cd578190505b6145e16145d9856144a3565b830182614580565b50505b505050565b600082821c905092915050565b6000614607600019846008026145e9565b1980831691505092915050565b600061462083836145f6565b9150826002028217905092915050565b61463a8383614498565b67ffffffffffffffff811115614653576146526138cf565b5b61465d82546142e0565b6146688282856145a3565b6000601f8311600181146146975760008415614685578287013590505b61468f8582614614565b8655506146f7565b601f1984166146a586614311565b60005b828110156146cd578489013582556001820191506020850194506020810190506146a8565b868310156146ea57848901356146e6601f8916826145f6565b8355505b6001600288020188555050505b50505050505050565b7f4c61756e63687061643a20496e76616c69642061646472657373000000000000600082015250565b6000614736601a83613a87565b915061474182614700565b602082019050919050565b6000602082019050818103600083015261476581614729565b9050919050565b7f4c61756e63687061643a2063616c6c6572206973206e6f74206120776869746560008201527f6c69737465642061646472657373000000000000000000000000000000000000602082015250565b60006147c8602e83613a87565b91506147d38261476c565b604082019050919050565b600060208201905081810360008301526147f7816147bb565b9050919050565b7f4c61756e63687061643a20696e76616c69642061646472657373000000000000600082015250565b6000614834601a83613a87565b915061483f826147fe565b602082019050919050565b6000602082019050818103600083015261486381614827565b9050919050565b7f4e487b7100000000000000000000000000000000000000000000000000000000600052601160045260246000fd5b60006148a482613547565b91507fffffffffffffffffffffffffffffffffffffffffffffffffffffffffffffffff82036148d6576148d561486a565b5b600182019050919050565b7f4c61756e63687061643a20496e76616c696420636861696e0000000000000000600082015250565b6000614917601883613a87565b9150614922826148e1565b602082019050919050565b600060208201905081810360008301526149468161490a565b9050919050565b7f4c61756e63687061643a20496e76616c69642070726f6f660000000000000000600082015250565b6000614983601883613a87565b915061498e8261494d565b602082019050919050565b600060208201905081810360008301526149b281614976565b9050919050565b7f4c61756e63687061643a204e6f74206163746976650000000000000000000000600082015250565b60006149ef601583613a87565b91506149fa826149b9565b602082019050919050565b60006020820190508181036000830152614a1e816149e2565b9050919050565b7f4c61756e63687061643a20416c72656164792065786368616e67656400000000600082015250565b6000614a5b601c83613a87565b9150614a6682614a25565b602082019050919050565b60006020820190508181036000830152614a8a81614a4e565b9050919050565b7f4e487b7100000000000000000000000000000000000000000000000000000000600052601260045260246000fd5b6000614acb82613547565b9150614ad683613547565b925082614ae657614ae5614a91565b5b828204905092915050565b6000614afc82613547565b9150614b0783613547565b9250828202614b1581613547565b91508282048414831517614b2c57614b2b61486a565b5b5092915050565b6000608082019050614b486000830187613b0a565b614b55602083018661382a565b614b62604083018561382a565b614b6f606083018461382a565b95945050505050565b7f4c61756e63687061643a207374616b696e672061646472657373206e6f74206360008201527f68616e6765640000000000000000000000000000000000000000000000000000602082015250565b6000614bd4602683613a87565b9150614bdf82614b78565b604082019050919050565b60006020820190508181036000830152614c0381614bc7565b9050919050565b7f4c61756e63687061643a20496e73756666696369656e7420616d6f756e740000600082015250565b6000614c40601e83613a87565b9150614c4b82614c0a565b602082019050919050565b60006020820190508181036000830152614c6f81614c33565b9050919050565b6000602082019050614c8b6000830184613b0a565b92915050565b600081519050614ca081613551565b92915050565b600060208284031215614cbc57614cbb61347c565b5b6000614cca84828501614c91565b91505092915050565b7f4c61756e63687061643a20496e73756666696369656e742062616c616e636500600082015250565b6000614d09601f83613a87565b9150614d1482614cd3565b602082019050919050565b60006020820190508181036000830152614d3881614cfc565b9050919050565b6000604082019050614d546000830185613b0a565b614d616020830184613b0a565b9392505050565b7f4c61756e63687061643a20496e73756666696369656e7420616c6c6f77616e6360008201527f6500000000000000000000000000000000000000000000000000000000000000602082015250565b6000614dc4602183613a87565b9150614dcf82614d68565b604082019050919050565b60006020820190508181036000830152614df381614db7565b9050919050565b6000614e0582613547565b9150614e1083613547565b9250828201905080821115614e2857614e2761486a565b5b92915050565b7f4e6f207374616b65640000000000000000000000000000000000000000000000600082015250565b6000614e64600983613a87565b9150614e6f82614e2e565b602082019050919050565b60006020820190508181036000830152614e9381614e57565b9050919050565b6000614ea582613547565b9150614eb083613547565b9250828203905081811115614ec857614ec761486a565b5b92915050565b7f4c61756e63687061643a20496e73756666696369656e742074696d6500000000600082015250565b6000614f04601c83613a87565b9150614f0f82614ece565b602082019050919050565b60006020820190508181036000830152614f3381614ef7565b9050919050565b7f4c61756e63687061643a206c61756e636865642061646472657373206e6f742060008201527f6368616e67656400000000000000000000000000000000000000000000000000602082015250565b6000614f96602783613a87565b9150614fa182614f3a565b604082019050919050565b60006020820190508181036000830152614fc581614f89565b9050919050565b6000604082019050614fe16000830185613b0a565b614fee602083018461382a565b9392505050565b6000819050919050565b61501061500b8261357d565b614ff5565b82525050565b60006150228284614fff565b60208201915081905092915050565b7f4c61756e63687061643a20737461747573206e6f74206368616e676564000000600082015250565b6000615067601d83613a87565b915061507282615031565b602082019050919050565b600060208201905081810360008301526150968161505a565b9050919050565b6150a682613a7c565b67ffffffffffffffff8111156150bf576150be6138cf565b5b6150c982546142e0565b6150d48282856145a3565b600060209050601f83116001811461510757600084156150f5578287015190505b6150ff8582614614565b865550615167565b601f19841661511586614311565b60005b8281101561513d57848901518255600182019150602085019450602081019050615118565b8683101561515a5784890151615156601f8916826145f6565b8355505b6001600288020188555050505b505050505050565b60006060820190506151846000830186613b0a565b6151916020830185613b0a565b61519e604083018461382a565b949350505050565b6000815190506151b581613dac565b92915050565b6000602082840312156151d1576151d061347c565b5b60006151df848285016151a6565b91505092915050565b600081519050919050565b600081905092915050565b6000615209826151e8565b61521381856151f3565b9350615223818560208601613a98565b80840191505092915050565b600061523b82846151fe565b91508190509291505056fea2646970667358221220f533de75557d797da11f98f77afa4fad79c3e518871e0670123399e1f719bed964736f6c63430008140033",
  "linkReferences": {},
  "deployedLinkReferences": {}
}