{
  "_format": "hh-sol-artifact-1",
  "contractName": "Launchpad",
  "sourceName": "contracts/Launchpad.sol",
  "abi": [
    {
      "inputs": [],
      "stateMutability": "nonpayable",
      "type": "constructor"
    },
    {
      "inputs": [
        {
          "internalType": "address",
          "name": "target",
          "type": "address"
        }
      ],
      "name": "AddressEmptyCode",
      "type": "error"
    },
    {
      "inputs": [
        {
          "internalType": "address",
          "name": "account",
          "type": "address"
        }
      ],
      "name": "AddressInsufficientBalance",
      "type": "error"
    },
    {
      "inputs": [],
      "name": "FailedInnerCall",
      "type": "error"
    },
    {
      "inputs": [
        {
          "internalType": "address",
          "name": "token",
          "type": "address"
        }
      ],
      "name": "SafeERC20FailedOperation",
      "type": "error"
    },
    {
      "anonymous": false,
      "inputs": [
        {
          "indexed": true,
          "internalType": "uint256",
          "name": "launchpadId",
          "type": "uint256"
        },
        {
          "indexed": true,
          "internalType": "address",
          "name": "launchedAddress",
          "type": "address"
        },
        {
          "indexed": true,
          "internalType": "uint256",
          "name": "chainID",
          "type": "uint256"
        },
        {
          "indexed": false,
          "internalType": "string",
          "name": "_name",
          "type": "string"
        }
      ],
      "name": "AddLaunchpad",
      "type": "event"
    },
    {
      "anonymous": false,
      "inputs": [
        {
          "indexed": true,
          "internalType": "address",
          "name": "user",
          "type": "address"
        },
        {
          "indexed": true,
          "internalType": "uint256",
          "name": "launchpadId",
          "type": "uint256"
        },
        {
          "indexed": true,
          "internalType": "uint256",
          "name": "points",
          "type": "uint256"
        },
        {
          "indexed": false,
          "internalType": "address",
          "name": "token",
          "type": "address"
        },
        {
          "indexed": false,
          "internalType": "uint256",
          "name": "amount",
          "type": "uint256"
        },
        {
          "indexed": false,
          "internalType": "uint256",
          "name": "timestamp",
          "type": "uint256"
        },
        {
          "indexed": false,
          "internalType": "uint256",
          "name": "chainID",
          "type": "uint256"
        }
      ],
      "name": "Claimed",
      "type": "event"
    },
    {
      "anonymous": false,
      "inputs": [
        {
          "indexed": true,
          "internalType": "address",
          "name": "user",
          "type": "address"
        },
        {
          "indexed": true,
          "internalType": "uint256",
          "name": "launchpadId",
          "type": "uint256"
        },
        {
          "indexed": true,
          "internalType": "uint256",
          "name": "index",
          "type": "uint256"
        },
        {
          "indexed": false,
          "internalType": "address",
          "name": "token",
          "type": "address"
        },
        {
          "indexed": false,
          "internalType": "uint256",
          "name": "amount",
          "type": "uint256"
        },
        {
          "indexed": false,
          "internalType": "uint256",
          "name": "timestamp",
          "type": "uint256"
        },
        {
          "indexed": false,
          "internalType": "uint256",
          "name": "chainID",
          "type": "uint256"
        }
      ],
      "name": "Staked",
      "type": "event"
    },
    {
      "anonymous": false,
      "inputs": [
        {
          "indexed": true,
          "internalType": "address",
          "name": "user",
          "type": "address"
        },
        {
          "indexed": true,
          "internalType": "uint256",
          "name": "launchpadId",
          "type": "uint256"
        },
        {
          "indexed": true,
          "internalType": "uint256",
          "name": "index",
          "type": "uint256"
        },
        {
          "indexed": false,
          "internalType": "address",
          "name": "token",
          "type": "address"
        },
        {
          "indexed": false,
          "internalType": "uint256",
          "name": "amount",
          "type": "uint256"
        },
        {
          "indexed": false,
          "internalType": "uint256",
          "name": "timestamp",
          "type": "uint256"
        },
        {
          "indexed": false,
          "internalType": "uint256",
          "name": "chainID",
          "type": "uint256"
        }
      ],
      "name": "UnStaked",
      "type": "event"
    },
    {
      "inputs": [
        {
          "internalType": "uint256",
          "name": "",
          "type": "uint256"
        },
        {
          "internalType": "address",
          "name": "",
          "type": "address"
        },
        {
          "internalType": "uint256",
          "name": "",
          "type": "uint256"
        }
      ],
      "name": "UserChecks",
      "outputs": [
        {
          "internalType": "uint256",
          "name": "timestamp",
          "type": "uint256"
        },
        {
          "internalType": "uint256",
          "name": "staked",
          "type": "uint256"
        }
      ],
      "stateMutability": "view",
      "type": "function"
    },
    {
      "inputs": [
        {
          "internalType": "string",
          "name": "_name",
          "type": "string"
        },
        {
          "internalType": "contract ERC20",
          "name": "_stakeToken",
          "type": "address"
        },
        {
          "internalType": "contract ERC20",
          "name": "_launchedToken",
          "type": "address"
        },
        {
          "internalType": "uint32",
          "name": "_startTime",
          "type": "uint32"
        },
        {
          "internalType": "uint32",
          "name": "_endTime",
          "type": "uint32"
        },
        {
          "internalType": "uint256",
          "name": "_chainID",
          "type": "uint256"
        },
        {
          "internalType": "address",
          "name": "_stakingAddress",
          "type": "address"
        },
        {
          "internalType": "address",
          "name": "_launchedAddress",
          "type": "address"
        },
        {
          "internalType": "uint256",
          "name": "_LowStakingAmount",
          "type": "uint256"
        },
        {
          "internalType": "uint256",
          "name": "_totalAllocation",
          "type": "uint256"
        }
      ],
      "name": "addLaunchpad",
      "outputs": [],
      "stateMutability": "nonpayable",
      "type": "function"
    },
    {
      "inputs": [
        {
          "internalType": "address",
          "name": "_whiltAddress",
          "type": "address"
        }
      ],
      "name": "addWhiltAddress",
      "outputs": [],
      "stateMutability": "nonpayable",
      "type": "function"
    },
    {
      "inputs": [
        {
          "internalType": "uint256",
          "name": "_launchpadId",
          "type": "uint256"
        },
        {
          "internalType": "string",
          "name": "_name",
          "type": "string"
        }
      ],
      "name": "changeLaunchpadName",
      "outputs": [],
      "stateMutability": "nonpayable",
      "type": "function"
    },
    {
      "inputs": [
        {
          "internalType": "uint256",
          "name": "_launchpadId",
          "type": "uint256"
        },
        {
          "internalType": "bool",
          "name": "_status",
          "type": "bool"
        }
      ],
      "name": "changeLaunchpadStatus",
      "outputs": [],
      "stateMutability": "nonpayable",
      "type": "function"
    },
    {
      "inputs": [
        {
          "internalType": "uint256",
          "name": "_launchpadId",
          "type": "uint256"
        },
        {
          "internalType": "uint256",
          "name": "_pointsAmount",
          "type": "uint256"
        },
        {
          "internalType": "bytes32[]",
          "name": "proof",
          "type": "bytes32[]"
        }
      ],
      "name": "claimOfSameChain",
      "outputs": [],
      "stateMutability": "nonpayable",
      "type": "function"
    },
    {
      "inputs": [
        {
          "internalType": "uint256",
          "name": "",
          "type": "uint256"
        },
        {
          "internalType": "address",
          "name": "",
          "type": "address"
        }
      ],
      "name": "exchangeAmount",
      "outputs": [
        {
          "internalType": "uint256",
          "name": "",
          "type": "uint256"
        }
      ],
      "stateMutability": "view",
      "type": "function"
    },
    {
      "inputs": [
        {
          "internalType": "address",
          "name": "_user",
          "type": "address"
        }
      ],
      "name": "getExchangeAmount",
      "outputs": [
        {
          "internalType": "uint256",
          "name": "",
          "type": "uint256"
        }
      ],
      "stateMutability": "view",
      "type": "function"
    },
    {
      "inputs": [
        {
          "internalType": "uint256",
          "name": "",
          "type": "uint256"
        },
        {
          "internalType": "address",
          "name": "",
          "type": "address"
        }
      ],
      "name": "isExchanged",
      "outputs": [
        {
          "internalType": "bool",
          "name": "",
          "type": "bool"
        }
      ],
      "stateMutability": "view",
      "type": "function"
    },
    {
      "inputs": [
        {
          "internalType": "uint256",
          "name": "",
          "type": "uint256"
        },
        {
          "internalType": "address",
          "name": "",
          "type": "address"
        }
      ],
      "name": "launchpadOfWhiltaddress",
      "outputs": [
        {
          "internalType": "bool",
          "name": "",
          "type": "bool"
        }
      ],
      "stateMutability": "view",
      "type": "function"
    },
    {
      "inputs": [
        {
          "internalType": "uint256",
          "name": "",
          "type": "uint256"
        }
      ],
      "name": "launchpads",
      "outputs": [
        {
          "internalType": "string",
          "name": "name",
          "type": "string"
        },
        {
          "internalType": "uint32",
          "name": "startTime",
          "type": "uint32"
        },
        {
          "internalType": "uint32",
          "name": "endTime",
          "type": "uint32"
        },
        {
          "internalType": "uint32",
          "name": "LowStakingTime",
          "type": "uint32"
        },
        {
          "internalType": "uint256",
          "name": "chainID",
          "type": "uint256"
        },
        {
          "internalType": "uint256",
          "name": "LowStakingAmount",
          "type": "uint256"
        },
        {
          "internalType": "address",
          "name": "stakingAddress",
          "type": "address"
        },
        {
          "internalType": "address",
          "name": "launchedAddress",
          "type": "address"
        },
        {
          "internalType": "uint256",
          "name": "totalAllocation",
          "type": "uint256"
        }
      ],
      "stateMutability": "view",
      "type": "function"
    },
    {
      "inputs": [
        {
          "internalType": "uint256",
          "name": "",
          "type": "uint256"
        }
      ],
      "name": "merkleRoot",
      "outputs": [
        {
          "internalType": "bytes32",
          "name": "",
          "type": "bytes32"
        }
      ],
      "stateMutability": "view",
      "type": "function"
    },
    {
      "inputs": [
        {
          "internalType": "address",
          "name": "_whiltAddress",
          "type": "address"
        }
      ],
      "name": "removeWhiltAddress",
      "outputs": [],
      "stateMutability": "nonpayable",
      "type": "function"
    },
    {
      "inputs": [
        {
          "internalType": "uint256",
          "name": "_launchpadId",
          "type": "uint256"
        },
        {
          "internalType": "address[]",
          "name": "_administrator",
          "type": "address[]"
        }
      ],
      "name": "setLaunchpadAdministrator",
      "outputs": [],
      "stateMutability": "nonpayable",
      "type": "function"
    },
    {
      "inputs": [
        {
          "internalType": "uint256",
          "name": "_launchpadId",
          "type": "uint256"
        },
        {
          "internalType": "address",
          "name": "_launchedAddress",
          "type": "address"
        }
      ],
      "name": "setLaunchpadLaunchedAddress",
      "outputs": [],
      "stateMutability": "nonpayable",
      "type": "function"
    },
    {
      "inputs": [
        {
          "internalType": "uint256",
          "name": "_launchpadId",
          "type": "uint256"
        },
        {
          "internalType": "uint32",
          "name": "_LowStakingTime",
          "type": "uint32"
        }
      ],
      "name": "setLaunchpadLowStakingTime",
      "outputs": [],
      "stateMutability": "nonpayable",
      "type": "function"
    },
    {
      "inputs": [
        {
          "internalType": "uint256",
          "name": "_launchpadId",
          "type": "uint256"
        },
        {
          "internalType": "uint256",
          "name": "_totalPoints",
          "type": "uint256"
        },
        {
          "internalType": "bytes32",
          "name": "_root",
          "type": "bytes32"
        }
      ],
      "name": "setLaunchpadRoot",
      "outputs": [],
      "stateMutability": "nonpayable",
      "type": "function"
    },
    {
      "inputs": [
        {
          "internalType": "uint256",
          "name": "_launchpadId",
          "type": "uint256"
        },
        {
          "internalType": "address",
          "name": "_stakingAddress",
          "type": "address"
        }
      ],
      "name": "setLaunchpadStakingAddress",
      "outputs": [],
      "stateMutability": "nonpayable",
      "type": "function"
    },
    {
      "inputs": [
        {
          "internalType": "uint256",
          "name": "_launchpadId",
          "type": "uint256"
        },
        {
          "internalType": "uint256",
          "name": "_amount",
          "type": "uint256"
        }
      ],
      "name": "stake",
      "outputs": [],
      "stateMutability": "nonpayable",
      "type": "function"
    },
    {
      "inputs": [
        {
          "internalType": "uint256",
          "name": "",
          "type": "uint256"
        }
      ],
      "name": "totalPoints",
      "outputs": [
        {
          "internalType": "uint256",
          "name": "",
          "type": "uint256"
        }
      ],
      "stateMutability": "view",
      "type": "function"
    },
    {
      "inputs": [
        {
          "internalType": "uint256",
          "name": "",
          "type": "uint256"
        }
      ],
      "name": "trackCheckpoints",
      "outputs": [
        {
          "internalType": "contract ERC20",
          "name": "stakeToken",
          "type": "address"
        },
        {
          "internalType": "contract ERC20",
          "name": "launchedToken",
          "type": "address"
        },
        {
          "internalType": "bool",
          "name": "allowsWithdraw",
          "type": "bool"
        },
        {
          "internalType": "uint256",
          "name": "timestamp",
          "type": "uint256"
        },
        {
          "internalType": "uint256",
          "name": "totalStaked",
          "type": "uint256"
        },
        {
          "internalType": "bool",
          "name": "status",
          "type": "bool"
        }
      ],
      "stateMutability": "view",
      "type": "function"
    },
    {
      "inputs": [
        {
          "internalType": "uint256",
          "name": "_launchpadId",
          "type": "uint256"
        },
        {
          "internalType": "uint256",
          "name": "_index",
          "type": "uint256"
        }
      ],
      "name": "unstake",
      "outputs": [],
      "stateMutability": "nonpayable",
      "type": "function"
    },
    {
      "inputs": [
        {
          "internalType": "uint256",
          "name": "_launchpadId",
          "type": "uint256"
        },
        {
          "internalType": "bool",
          "name": "_status",
          "type": "bool"
        }
      ],
      "name": "updateAllowsWithdraw",
      "outputs": [],
      "stateMutability": "nonpayable",
      "type": "function"
    },
    {
      "inputs": [
        {
          "internalType": "uint256",
          "name": "_launchpadId",
          "type": "uint256"
        },
        {
          "internalType": "bool",
          "name": "_status",
          "type": "bool"
        }
      ],
      "name": "updateLaunchpadStatus",
      "outputs": [],
      "stateMutability": "nonpayable",
      "type": "function"
    },
    {
      "inputs": [
        {
          "internalType": "uint256",
          "name": "",
          "type": "uint256"
        },
        {
          "internalType": "address",
          "name": "",
          "type": "address"
        }
      ],
      "name": "userCheckpointCounts",
      "outputs": [
        {
          "internalType": "uint256",
          "name": "",
          "type": "uint256"
        }
      ],
      "stateMutability": "view",
      "type": "function"
    },
    {
      "inputs": [
        {
          "internalType": "bytes32",
          "name": "root",
          "type": "bytes32"
        },
        {
          "internalType": "bytes32[]",
          "name": "proof",
          "type": "bytes32[]"
        },
        {
          "internalType": "address",
          "name": "addr",
          "type": "address"
        },
        {
          "internalType": "uint256",
          "name": "amount",
          "type": "uint256"
        }
      ],
      "name": "verify",
      "outputs": [
        {
          "internalType": "bool",
          "name": "",
          "type": "bool"
        }
      ],
      "stateMutability": "pure",
      "type": "function"
    },
    {
      "inputs": [
        {
          "internalType": "address",
          "name": "",
          "type": "address"
        }
      ],
      "name": "whiltAddress",
      "outputs": [
        {
          "internalType": "bool",
          "name": "",
          "type": "bool"
        }
      ],
      "stateMutability": "view",
      "type": "function"
    }
  ],
  "bytecode": "0x608060405234801561001057600080fd5b506001600560003373ffffffffffffffffffffffffffffffffffffffff1673ffffffffffffffffffffffffffffffffffffffff16815260200190815260200160002060006101000a81548160ff0219169083151502179055506158ad80620000796000396000f3fe608060405234801561001057600080fd5b50600436106101c45760003560e01c80637b0472f0116100f95780639fd6abac11610097578063e4dd035611610071578063e4dd035614610567578063f830efd214610583578063fa66181d1461059f578063fb924b4e146105bb576101c4565b80639fd6abac146104ff578063cff144f71461051b578063df2ccd051461054b576101c4565b80639136a4da116100d35780639136a4da1461044e57806398d13fff1461047e5780639ae40712146104b35780639e2c8a5b146104e3576101c4565b80637b0472f0146103d15780637e3cd963146103ed57806385aea83d1461041d576101c4565b8063313a249b116101665780634199b2ad116101405780634199b2ad1461033157806359917db0146103615780635b85972c1461037d5780635be5f0bc14610399576101c4565b8063313a249b146102a15780633befec66146102d15780633c70b35714610301576101c4565b80632213ec1b116101a25780632213ec1b1461023157806324467afd1461024d5780632775d619146102695780632b7dd0da14610285576101c4565b806302b20ae0146101c95780630cbaff5d146101e55780631c0329d514610215575b600080fd5b6101e360048036038101906101de9190613c2b565b6105d7565b005b6101ff60048036038101906101fa9190613cf8565b610b73565b60405161020c9190613d40565b60405180910390f35b61022f600480360381019061022a9190613d5b565b610b93565b005b61024b60048036038101906102469190613dea565b610d58565b005b61026760048036038101906102629190613e85565b610f0b565b005b610283600480360381019061027e9190613cf8565b6110de565b005b61029f600480360381019061029a9190613f3b565b6111a8565b005b6102bb60048036038101906102b69190613f9b565b61135f565b6040516102c89190613fd7565b60405180910390f35b6102eb60048036038101906102e69190613ff2565b611377565b6040516102f89190613d40565b60405180910390f35b61031b60048036038101906103169190613f9b565b6113a6565b6040516103289190614041565b60405180910390f35b61034b60048036038101906103469190613ff2565b6113be565b6040516103589190613d40565b60405180910390f35b61037b60048036038101906103769190613c2b565b6113ed565b005b61039760048036038101906103929190613ff2565b6119d8565b005b6103b360048036038101906103ae9190613f9b565b611c01565b6040516103c8999897969594939291906140f9565b60405180910390f35b6103eb60048036038101906103e6919061418d565b611d57565b005b61040760048036038101906104029190613ff2565b612465565b6040516104149190613fd7565b60405180910390f35b610437600480360381019061043291906141cd565b61248a565b604051610445929190614220565b60405180910390f35b61046860048036038101906104639190613ff2565b6124c8565b6040516104759190613fd7565b60405180910390f35b61049860048036038101906104939190613f9b565b6124ed565b6040516104aa969594939291906142a8565b60405180910390f35b6104cd60048036038101906104c89190613cf8565b612583565b6040516104da9190613fd7565b60405180910390f35b6104fd60048036038101906104f8919061418d565b6125e1565b005b61051960048036038101906105149190613ff2565b612a8d565b005b61053560048036038101906105309190614309565b612cb6565b6040516105429190613d40565b60405180910390f35b610565600480360381019061056091906143b8565b612d32565b005b610581600480360381019061057c91906143b8565b612e6c565b005b61059d60048036038101906105989190614436565b612fa6565b005b6105b960048036038101906105b491906143b8565b613433565b005b6105d560048036038101906105d09190613cf8565b61356d565b005b60008084815481106105ec576105eb614536565b5b90600052602060002090600702016040518061012001604052908160008201805461061690614594565b80601f016020809104026020016040519081016040528092919081815260200182805461064290614594565b801561068f5780601f106106645761010080835404028352916020019161068f565b820191906000526020600020905b81548152906001019060200180831161067257829003601f168201915b505050505081526020016001820160009054906101000a900463ffffffff1663ffffffff1663ffffffff1681526020016001820160049054906101000a900463ffffffff1663ffffffff1663ffffffff1681526020016001820160089054906101000a900463ffffffff1663ffffffff1663ffffffff16815260200160028201548152602001600382015481526020016004820160009054906101000a900473ffffffffffffffffffffffffffffffffffffffff1673ffffffffffffffffffffffffffffffffffffffff1673ffffffffffffffffffffffffffffffffffffffff1681526020016005820160009054906101000a900473ffffffffffffffffffffffffffffffffffffffff1673ffffffffffffffffffffffffffffffffffffffff1673ffffffffffffffffffffffffffffffffffffffff1681526020016006820154815250509050600060036000868152602001908152602001600020905046826080015103610833576040517f08c379a000000000000000000000000000000000000000000000000000000000815260040161082a90614611565b60405180910390fd5b6108526006600087815260200190815260200160002054843387612cb6565b610891576040517f08c379a00000000000000000000000000000000000000000000000000000000081526004016108889061467d565b60405180910390fd5b8060010160149054906101000a900460ff166108ac57600080fd5b816040015163ffffffff16421080156108ce5750816020015163ffffffff1642115b61090d576040517f08c379a0000000000000000000000000000000000000000000000000000000008152600401610904906146e9565b60405180910390fd5b8060040160009054906101000a900460ff1661095e576040517f08c379a0000000000000000000000000000000000000000000000000000000008152600401610955906146e9565b60405180910390fd5b6002600086815260200190815260200160002060003373ffffffffffffffffffffffffffffffffffffffff1673ffffffffffffffffffffffffffffffffffffffff16815260200190815260200160002060009054906101000a900460ff16156109fc576040517f08c379a00000000000000000000000000000000000000000000000000000000081526004016109f390614755565b60405180910390fd5b6000826101000151600760008881526020019081526020016000205486610a2391906147d3565b610a2d9190614804565b9050806004600088815260200190815260200160002060003373ffffffffffffffffffffffffffffffffffffffff1673ffffffffffffffffffffffffffffffffffffffff1681526020019081526020016000208190555084863373ffffffffffffffffffffffffffffffffffffffff167f5221c999ce62b24027886db28e488ab139507cd446c6146da9a8c858c6560de18560010160009054906101000a900473ffffffffffffffffffffffffffffffffffffffff1685428960800151604051610afa9493929190614846565b60405180910390a460016002600088815260200190815260200160002060003373ffffffffffffffffffffffffffffffffffffffff1673ffffffffffffffffffffffffffffffffffffffff16815260200190815260200160002060006101000a81548160ff021916908315150217905550505050505050565b60056020528060005260406000206000915054906101000a900460ff1681565b826001600082815260200190815260200160002060003373ffffffffffffffffffffffffffffffffffffffff1673ffffffffffffffffffffffffffffffffffffffff16815260200190815260200160002060009054906101000a900460ff16610c31576040517f08c379a0000000000000000000000000000000000000000000000000000000008152600401610c28906148fd565b60405180910390fd5b6000801b600660008681526020019081526020016000205414610c89576040517f08c379a0000000000000000000000000000000000000000000000000000000008152600401610c8090614969565b60405180910390fd5b6000600760008681526020019081526020016000205414610cdf576040517f08c379a0000000000000000000000000000000000000000000000000000000008152600401610cd6906149fb565b60405180910390fd5b60008311610d22576040517f08c379a0000000000000000000000000000000000000000000000000000000008152600401610d1990614a67565b60405180910390fd5b81600660008681526020019081526020016000208190555082600760008681526020019081526020016000208190555050505050565b816001600082815260200190815260200160002060003373ffffffffffffffffffffffffffffffffffffffff1673ffffffffffffffffffffffffffffffffffffffff16815260200190815260200160002060009054906101000a900460ff16610df6576040517f08c379a0000000000000000000000000000000000000000000000000000000008152600401610ded906148fd565b60405180910390fd5b8163ffffffff1660008481548110610e1157610e10614536565b5b906000526020600020906007020160010160089054906101000a900463ffffffff1663ffffffff1603610e79576040517f08c379a0000000000000000000000000000000000000000000000000000000008152600401610e7090614ad3565b60405180910390fd5b60008263ffffffff1611610ec2576040517f08c379a0000000000000000000000000000000000000000000000000000000008152600401610eb990614b3f565b60405180910390fd5b8160008481548110610ed757610ed6614536565b5b906000526020600020906007020160010160086101000a81548163ffffffff021916908363ffffffff160217905550505050565b826001600082815260200190815260200160002060003373ffffffffffffffffffffffffffffffffffffffff1673ffffffffffffffffffffffffffffffffffffffff16815260200190815260200160002060009054906101000a900460ff16610fa9576040517f08c379a0000000000000000000000000000000000000000000000000000000008152600401610fa0906148fd565b60405180910390fd5b8282604051602001610fbc929190614b9e565b6040516020818303038152906040528051906020012060008581548110610fe657610fe5614536565b5b90600052602060002090600702016000016040516020016110079190614c4f565b604051602081830303815290604052805190602001200361105d576040517f08c379a000000000000000000000000000000000000000000000000000000000815260040161105490614cb2565b60405180910390fd5b600083839050116110a3576040517f08c379a000000000000000000000000000000000000000000000000000000000815260040161109a90614d1e565b60405180910390fd5b8282600086815481106110b9576110b8614536565b5b906000526020600020906007020160000191826110d7929190614ed6565b5050505050565b600073ffffffffffffffffffffffffffffffffffffffff168173ffffffffffffffffffffffffffffffffffffffff160361114d576040517f08c379a000000000000000000000000000000000000000000000000000000000815260040161114490614ff2565b60405180910390fd5b6001600560008373ffffffffffffffffffffffffffffffffffffffff1673ffffffffffffffffffffffffffffffffffffffff16815260200190815260200160002060006101000a81548160ff02191690831515021790555050565b600560003373ffffffffffffffffffffffffffffffffffffffff1673ffffffffffffffffffffffffffffffffffffffff16815260200190815260200160002060009054906101000a900460ff16611234576040517f08c379a000000000000000000000000000000000000000000000000000000000815260040161122b90615084565b60405180910390fd5b60005b8282905081101561135957600083838381811061125757611256614536565b5b905060200201602081019061126c9190613cf8565b9050600073ffffffffffffffffffffffffffffffffffffffff168173ffffffffffffffffffffffffffffffffffffffff16036112dd576040517f08c379a00000000000000000000000000000000000000000000000000000000081526004016112d4906150f0565b60405180910390fd5b600180600087815260200190815260200160002060008373ffffffffffffffffffffffffffffffffffffffff1673ffffffffffffffffffffffffffffffffffffffff16815260200190815260200160002060006101000a81548160ff02191690831515021790555050808061135190615110565b915050611237565b50505050565b60076020528060005260406000206000915090505481565b60026020528160005260406000206020528060005260406000206000915091509054906101000a900460ff1681565b60066020528060005260406000206000915090505481565b60016020528160005260406000206020528060005260406000206000915091509054906101000a900460ff1681565b600080848154811061140257611401614536565b5b90600052602060002090600702016040518061012001604052908160008201805461142c90614594565b80601f016020809104026020016040519081016040528092919081815260200182805461145890614594565b80156114a55780601f1061147a576101008083540402835291602001916114a5565b820191906000526020600020905b81548152906001019060200180831161148857829003601f168201915b505050505081526020016001820160009054906101000a900463ffffffff1663ffffffff1663ffffffff1681526020016001820160049054906101000a900463ffffffff1663ffffffff1663ffffffff1681526020016001820160089054906101000a900463ffffffff1663ffffffff1663ffffffff16815260200160028201548152602001600382015481526020016004820160009054906101000a900473ffffffffffffffffffffffffffffffffffffffff1673ffffffffffffffffffffffffffffffffffffffff1673ffffffffffffffffffffffffffffffffffffffff1681526020016005820160009054906101000a900473ffffffffffffffffffffffffffffffffffffffff1673ffffffffffffffffffffffffffffffffffffffff1673ffffffffffffffffffffffffffffffffffffffff1681526020016006820154815250509050600060036000868152602001908152602001600020905046826080015114611649576040517f08c379a000000000000000000000000000000000000000000000000000000000815260040161164090614611565b60405180910390fd5b6116686006600087815260200190815260200160002054843387612cb6565b6116a7576040517f08c379a000000000000000000000000000000000000000000000000000000000815260040161169e9061467d565b60405180910390fd5b8060010160149054906101000a900460ff166116c257600080fd5b816040015163ffffffff16421080156116e45750816020015163ffffffff1642115b611723576040517f08c379a000000000000000000000000000000000000000000000000000000000815260040161171a906146e9565b60405180910390fd5b8060040160009054906101000a900460ff16611774576040517f08c379a000000000000000000000000000000000000000000000000000000000815260040161176b906146e9565b60405180910390fd5b6002600086815260200190815260200160002060003373ffffffffffffffffffffffffffffffffffffffff1673ffffffffffffffffffffffffffffffffffffffff16815260200190815260200160002060009054906101000a900460ff1615611812576040517f08c379a000000000000000000000000000000000000000000000000000000000815260040161180990614755565b60405180910390fd5b600082610100015160076000888152602001908152602001600020548661183991906147d3565b6118439190614804565b905061189433828460010160009054906101000a900473ffffffffffffffffffffffffffffffffffffffff1673ffffffffffffffffffffffffffffffffffffffff166136549092919063ffffffff16565b806004600088815260200190815260200160002060003373ffffffffffffffffffffffffffffffffffffffff1673ffffffffffffffffffffffffffffffffffffffff1681526020019081526020016000208190555084863373ffffffffffffffffffffffffffffffffffffffff167f5221c999ce62b24027886db28e488ab139507cd446c6146da9a8c858c6560de18560010160009054906101000a900473ffffffffffffffffffffffffffffffffffffffff168542896080015160405161195f9493929190614846565b60405180910390a460016002600088815260200190815260200160002060003373ffffffffffffffffffffffffffffffffffffffff1673ffffffffffffffffffffffffffffffffffffffff16815260200190815260200160002060006101000a81548160ff021916908315150217905550505050505050565b816001600082815260200190815260200160002060003373ffffffffffffffffffffffffffffffffffffffff1673ffffffffffffffffffffffffffffffffffffffff16815260200190815260200160002060009054906101000a900460ff16611a76576040517f08c379a0000000000000000000000000000000000000000000000000000000008152600401611a6d906148fd565b60405180910390fd5b8173ffffffffffffffffffffffffffffffffffffffff1660008481548110611aa157611aa0614536565b5b906000526020600020906007020160040160009054906101000a900473ffffffffffffffffffffffffffffffffffffffff1673ffffffffffffffffffffffffffffffffffffffff1603611b29576040517f08c379a0000000000000000000000000000000000000000000000000000000008152600401611b20906151ca565b60405180910390fd5b600073ffffffffffffffffffffffffffffffffffffffff168273ffffffffffffffffffffffffffffffffffffffff1603611b98576040517f08c379a0000000000000000000000000000000000000000000000000000000008152600401611b8f906150f0565b60405180910390fd5b8160008481548110611bad57611bac614536565b5b906000526020600020906007020160040160006101000a81548173ffffffffffffffffffffffffffffffffffffffff021916908373ffffffffffffffffffffffffffffffffffffffff160217905550505050565b60008181548110611c1157600080fd5b9060005260206000209060070201600091509050806000018054611c3490614594565b80601f0160208091040260200160405190810160405280929190818152602001828054611c6090614594565b8015611cad5780601f10611c8257610100808354040283529160200191611cad565b820191906000526020600020905b815481529060010190602001808311611c9057829003601f168201915b5050505050908060010160009054906101000a900463ffffffff16908060010160049054906101000a900463ffffffff16908060010160089054906101000a900463ffffffff16908060020154908060030154908060040160009054906101000a900473ffffffffffffffffffffffffffffffffffffffff16908060050160009054906101000a900473ffffffffffffffffffffffffffffffffffffffff16908060060154905089565b6000808381548110611d6c57611d6b614536565b5b906000526020600020906007020160405180610120016040529081600082018054611d9690614594565b80601f0160208091040260200160405190810160405280929190818152602001828054611dc290614594565b8015611e0f5780601f10611de457610100808354040283529160200191611e0f565b820191906000526020600020905b815481529060010190602001808311611df257829003601f168201915b505050505081526020016001820160009054906101000a900463ffffffff1663ffffffff1663ffffffff1681526020016001820160049054906101000a900463ffffffff1663ffffffff1663ffffffff1681526020016001820160089054906101000a900463ffffffff1663ffffffff1663ffffffff16815260200160028201548152602001600382015481526020016004820160009054906101000a900473ffffffffffffffffffffffffffffffffffffffff1673ffffffffffffffffffffffffffffffffffffffff1673ffffffffffffffffffffffffffffffffffffffff1681526020016005820160009054906101000a900473ffffffffffffffffffffffffffffffffffffffff1673ffffffffffffffffffffffffffffffffffffffff1673ffffffffffffffffffffffffffffffffffffffff168152602001600682015481525050905060006003600085815260200190815260200160002090508160a00151831015611fb4576040517f08c379a0000000000000000000000000000000000000000000000000000000008152600401611fab90615236565b60405180910390fd5b8060040160009054906101000a900460ff16612005576040517f08c379a0000000000000000000000000000000000000000000000000000000008152600401611ffc906146e9565b60405180910390fd5b828160000160009054906101000a900473ffffffffffffffffffffffffffffffffffffffff1673ffffffffffffffffffffffffffffffffffffffff166370a08231336040518263ffffffff1660e01b81526004016120639190615256565b602060405180830381865afa158015612080573d6000803e3d6000fd5b505050506040513d601f19601f820116820180604052508101906120a49190615286565b10156120e5576040517f08c379a00000000000000000000000000000000000000000000000000000000081526004016120dc906152ff565b60405180910390fd5b828160000160009054906101000a900473ffffffffffffffffffffffffffffffffffffffff1673ffffffffffffffffffffffffffffffffffffffff1663dd62ed3e33306040518363ffffffff1660e01b815260040161214592919061531f565b602060405180830381865afa158015612162573d6000803e3d6000fd5b505050506040513d601f19601f820116820180604052508101906121869190615286565b10156121c7576040517f08c379a00000000000000000000000000000000000000000000000000000000081526004016121be906153ba565b60405180910390fd5b816020015163ffffffff16421180156121e95750816040015163ffffffff1642105b612228576040517f08c379a000000000000000000000000000000000000000000000000000000000815260040161221f906146e9565b60405180910390fd5b6008600085815260200190815260200160002060003373ffffffffffffffffffffffffffffffffffffffff1673ffffffffffffffffffffffffffffffffffffffff168152602001908152602001600020600081548092919061228990615110565b919050555060006008600086815260200190815260200160002060003373ffffffffffffffffffffffffffffffffffffffff1673ffffffffffffffffffffffffffffffffffffffff1681526020019081526020016000205490506040518060400160405280428152602001858152506009600087815260200190815260200160002060003373ffffffffffffffffffffffffffffffffffffffff1673ffffffffffffffffffffffffffffffffffffffff168152602001908152602001600020600083815260200190815260200160002060008201518160000155602082015181600101559050506123c5338460c00151868560000160009054906101000a900473ffffffffffffffffffffffffffffffffffffffff1673ffffffffffffffffffffffffffffffffffffffff166136d3909392919063ffffffff16565b838260030160008282546123d991906153da565b9250508190555080853373ffffffffffffffffffffffffffffffffffffffff167fc40e88aa6989dbd0da8df1ec625f945be9225f07f444e8ab647568dd76a218878560000160009054906101000a900473ffffffffffffffffffffffffffffffffffffffff16884289608001516040516124569493929190614846565b60405180910390a45050505050565b6008602052816000526040600020602052806000526040600020600091509150505481565b600960205282600052604060002060205281600052604060002060205280600052604060002060009250925050508060000154908060010154905082565b6004602052816000526040600020602052806000526040600020600091509150505481565b60036020528060005260406000206000915090508060000160009054906101000a900473ffffffffffffffffffffffffffffffffffffffff16908060010160009054906101000a900473ffffffffffffffffffffffffffffffffffffffff16908060010160149054906101000a900460ff16908060020154908060030154908060040160009054906101000a900460ff16905086565b6000600460008080549050815260200190815260200160002060008373ffffffffffffffffffffffffffffffffffffffff1673ffffffffffffffffffffffffffffffffffffffff168152602001908152602001600020549050919050565b600060036000848152602001908152602001600020905060006009600085815260200190815260200160002060003373ffffffffffffffffffffffffffffffffffffffff1673ffffffffffffffffffffffffffffffffffffffff1681526020019081526020016000206000848152602001908152602001600020604051806040016040529081600082015481526020016001820154815250509050600080858154811061269157612690614536565b5b9060005260206000209060070201604051806101200160405290816000820180546126bb90614594565b80601f01602080910402602001604051908101604052809291908181526020018280546126e790614594565b80156127345780601f1061270957610100808354040283529160200191612734565b820191906000526020600020905b81548152906001019060200180831161271757829003601f168201915b505050505081526020016001820160009054906101000a900463ffffffff1663ffffffff1663ffffffff1681526020016001820160049054906101000a900463ffffffff1663ffffffff1663ffffffff1681526020016001820160089054906101000a900463ffffffff1663ffffffff1663ffffffff16815260200160028201548152602001600382015481526020016004820160009054906101000a900473ffffffffffffffffffffffffffffffffffffffff1673ffffffffffffffffffffffffffffffffffffffff1673ffffffffffffffffffffffffffffffffffffffff1681526020016005820160009054906101000a900473ffffffffffffffffffffffffffffffffffffffff1673ffffffffffffffffffffffffffffffffffffffff1673ffffffffffffffffffffffffffffffffffffffff168152602001600682015481525050905060008260200151116128c2576040517f08c379a00000000000000000000000000000000000000000000000000000000081526004016128b99061545a565b60405180910390fd5b806060015163ffffffff168260000151426128dd919061547a565b101561291e576040517f08c379a0000000000000000000000000000000000000000000000000000000008152600401612915906154fa565b60405180910390fd5b6129713383602001518560000160009054906101000a900473ffffffffffffffffffffffffffffffffffffffff1673ffffffffffffffffffffffffffffffffffffffff166136549092919063ffffffff16565b8160200151836003016000828254612989919061547a565b925050819055506009600086815260200190815260200160002060003373ffffffffffffffffffffffffffffffffffffffff1673ffffffffffffffffffffffffffffffffffffffff16815260200190815260200160002060008581526020019081526020016000206000808201600090556001820160009055505083853373ffffffffffffffffffffffffffffffffffffffff167f4fecc6624197104a130c4a66ed5596b1749ed33b37df80e0afcb949d6db0d28f8660000160009054906101000a900473ffffffffffffffffffffffffffffffffffffffff168660200151428760800151604051612a7e9493929190614846565b60405180910390a45050505050565b816001600082815260200190815260200160002060003373ffffffffffffffffffffffffffffffffffffffff1673ffffffffffffffffffffffffffffffffffffffff16815260200190815260200160002060009054906101000a900460ff16612b2b576040517f08c379a0000000000000000000000000000000000000000000000000000000008152600401612b22906148fd565b60405180910390fd5b8173ffffffffffffffffffffffffffffffffffffffff1660008481548110612b5657612b55614536565b5b906000526020600020906007020160050160009054906101000a900473ffffffffffffffffffffffffffffffffffffffff1673ffffffffffffffffffffffffffffffffffffffff1603612bde576040517f08c379a0000000000000000000000000000000000000000000000000000000008152600401612bd59061558c565b60405180910390fd5b600073ffffffffffffffffffffffffffffffffffffffff168273ffffffffffffffffffffffffffffffffffffffff1603612c4d576040517f08c379a0000000000000000000000000000000000000000000000000000000008152600401612c44906150f0565b60405180910390fd5b8160008481548110612c6257612c61614536565b5b906000526020600020906007020160050160006101000a81548173ffffffffffffffffffffffffffffffffffffffff021916908373ffffffffffffffffffffffffffffffffffffffff160217905550505050565b6000808383604051602001612ccc9291906155ac565b60405160208183030381529060405280519060200120604051602001612cf291906155f6565b604051602081830303815290604052805190602001209050612d15858783613755565b15612d24576001915050612d2a565b60009150505b949350505050565b816001600082815260200190815260200160002060003373ffffffffffffffffffffffffffffffffffffffff1673ffffffffffffffffffffffffffffffffffffffff16815260200190815260200160002060009054906101000a900460ff16612dd0576040517f08c379a0000000000000000000000000000000000000000000000000000000008152600401612dc7906148fd565b60405180910390fd5b8115156003600085815260200190815260200160002060040160009054906101000a900460ff16151503612e39576040517f08c379a0000000000000000000000000000000000000000000000000000000008152600401612e309061565d565b60405180910390fd5b816003600085815260200190815260200160002060040160006101000a81548160ff021916908315150217905550505050565b816001600082815260200190815260200160002060003373ffffffffffffffffffffffffffffffffffffffff1673ffffffffffffffffffffffffffffffffffffffff16815260200190815260200160002060009054906101000a900460ff16612f0a576040517f08c379a0000000000000000000000000000000000000000000000000000000008152600401612f01906148fd565b60405180910390fd5b8115156003600085815260200190815260200160002060040160009054906101000a900460ff16151503612f73576040517f08c379a0000000000000000000000000000000000000000000000000000000008152600401612f6a9061565d565b60405180910390fd5b816003600085815260200190815260200160002060040160006101000a81548160ff021916908315150217905550505050565b600560003373ffffffffffffffffffffffffffffffffffffffff1673ffffffffffffffffffffffffffffffffffffffff16815260200190815260200160002060009054906101000a900460ff16613032576040517f08c379a000000000000000000000000000000000000000000000000000000000815260040161302990615084565b60405180910390fd5b60006040518061012001604052808d8d8080601f016020809104026020016040519081016040528093929190818152602001838380828437600081840152601f19601f8201169050808301925050505050505081526020018963ffffffff1681526020018863ffffffff168152602001600063ffffffff1681526020018781526020018481526020018673ffffffffffffffffffffffffffffffffffffffff1681526020018573ffffffffffffffffffffffffffffffffffffffff1681526020018381525090806001815401808255809150506001900390600052602060002090600702016000909190919091506000820151816000019081613135919061567d565b5060208201518160010160006101000a81548163ffffffff021916908363ffffffff16021790555060408201518160010160046101000a81548163ffffffff021916908363ffffffff16021790555060608201518160010160086101000a81548163ffffffff021916908363ffffffff1602179055506080820151816002015560a0820151816003015560c08201518160040160006101000a81548173ffffffffffffffffffffffffffffffffffffffff021916908373ffffffffffffffffffffffffffffffffffffffff16021790555060e08201518160050160006101000a81548173ffffffffffffffffffffffffffffffffffffffff021916908373ffffffffffffffffffffffffffffffffffffffff160217905550610100820151816006015550506040518060c001604052808a73ffffffffffffffffffffffffffffffffffffffff1681526020018973ffffffffffffffffffffffffffffffffffffffff16815260200160001515815260200142815260200160008152602001600115158152506003600060016000805490506132d0919061547a565b815260200190815260200160002060008201518160000160006101000a81548173ffffffffffffffffffffffffffffffffffffffff021916908373ffffffffffffffffffffffffffffffffffffffff16021790555060208201518160010160006101000a81548173ffffffffffffffffffffffffffffffffffffffff021916908373ffffffffffffffffffffffffffffffffffffffff16021790555060408201518160010160146101000a81548160ff021916908315150217905550606082015181600201556080820151816003015560a08201518160040160006101000a81548160ff021916908315150217905550905050848373ffffffffffffffffffffffffffffffffffffffff1660016000805490506133ed919061547a565b7f17a262a8023c95d8708b3f4f4c2e671d794212e4157cc8810742b9b39596705d8e8e60405161341e92919061577c565b60405180910390a45050505050505050505050565b816001600082815260200190815260200160002060003373ffffffffffffffffffffffffffffffffffffffff1673ffffffffffffffffffffffffffffffffffffffff16815260200190815260200160002060009054906101000a900460ff166134d1576040517f08c379a00000000000000000000000000000000000000000000000000000000081526004016134c8906148fd565b60405180910390fd5b8115156003600085815260200190815260200160002060010160149054906101000a900460ff1615150361353a576040517f08c379a00000000000000000000000000000000000000000000000000000000081526004016135319061565d565b60405180910390fd5b816003600085815260200190815260200160002060010160146101000a81548160ff021916908315150217905550505050565b600560008273ffffffffffffffffffffffffffffffffffffffff1673ffffffffffffffffffffffffffffffffffffffff16815260200190815260200160002060009054906101000a900460ff166135f9576040517f08c379a00000000000000000000000000000000000000000000000000000000081526004016135f090614ff2565b60405180910390fd5b6000600560008373ffffffffffffffffffffffffffffffffffffffff1673ffffffffffffffffffffffffffffffffffffffff16815260200190815260200160002060006101000a81548160ff02191690831515021790555050565b6136ce838473ffffffffffffffffffffffffffffffffffffffff1663a9059cbb85856040516024016136879291906155ac565b604051602081830303815290604052915060e01b6020820180517bffffffffffffffffffffffffffffffffffffffffffffffffffffffff838183161783525050505061376c565b505050565b61374f848573ffffffffffffffffffffffffffffffffffffffff166323b872dd868686604051602401613708939291906157a0565b604051602081830303815290604052915060e01b6020820180517bffffffffffffffffffffffffffffffffffffffffffffffffffffffff838183161783525050505061376c565b50505050565b6000826137628584613803565b1490509392505050565b6000613797828473ffffffffffffffffffffffffffffffffffffffff1661385990919063ffffffff16565b905060008151141580156137bc5750808060200190518101906137ba91906157ec565b155b156137fe57826040517f5274afe70000000000000000000000000000000000000000000000000000000081526004016137f59190615256565b60405180910390fd5b505050565b60008082905060005b845181101561384e576138398286838151811061382c5761382b614536565b5b602002602001015161386f565b9150808061384690615110565b91505061380c565b508091505092915050565b60606138678383600061389a565b905092915050565b6000818310613887576138828284613967565b613892565b6138918383613967565b5b905092915050565b6060814710156138e157306040517fcd7860590000000000000000000000000000000000000000000000000000000081526004016138d89190615256565b60405180910390fd5b6000808573ffffffffffffffffffffffffffffffffffffffff16848660405161390a9190615860565b60006040518083038185875af1925050503d8060008114613947576040519150601f19603f3d011682016040523d82523d6000602084013e61394c565b606091505b509150915061395c86838361397e565b925050509392505050565b600082600052816020526040600020905092915050565b6060826139935761398e82613a0d565b613a05565b600082511480156139bb575060008473ffffffffffffffffffffffffffffffffffffffff163b145b156139fd57836040517f9996b3150000000000000000000000000000000000000000000000000000000081526004016139f49190615256565b60405180910390fd5b819050613a06565b5b9392505050565b600081511115613a205780518082602001fd5b6040517f1425ea4200000000000000000000000000000000000000000000000000000000815260040160405180910390fd5b6000604051905090565b600080fd5b600080fd5b6000819050919050565b613a7981613a66565b8114613a8457600080fd5b50565b600081359050613a9681613a70565b92915050565b600080fd5b6000601f19601f8301169050919050565b7f4e487b7100000000000000000000000000000000000000000000000000000000600052604160045260246000fd5b613aea82613aa1565b810181811067ffffffffffffffff82111715613b0957613b08613ab2565b5b80604052505050565b6000613b1c613a52565b9050613b288282613ae1565b919050565b600067ffffffffffffffff821115613b4857613b47613ab2565b5b602082029050602081019050919050565b600080fd5b6000819050919050565b613b7181613b5e565b8114613b7c57600080fd5b50565b600081359050613b8e81613b68565b92915050565b6000613ba7613ba284613b2d565b613b12565b90508083825260208201905060208402830185811115613bca57613bc9613b59565b5b835b81811015613bf35780613bdf8882613b7f565b845260208401935050602081019050613bcc565b5050509392505050565b600082601f830112613c1257613c11613a9c565b5b8135613c22848260208601613b94565b91505092915050565b600080600060608486031215613c4457613c43613a5c565b5b6000613c5286828701613a87565b9350506020613c6386828701613a87565b925050604084013567ffffffffffffffff811115613c8457613c83613a61565b5b613c9086828701613bfd565b9150509250925092565b600073ffffffffffffffffffffffffffffffffffffffff82169050919050565b6000613cc582613c9a565b9050919050565b613cd581613cba565b8114613ce057600080fd5b50565b600081359050613cf281613ccc565b92915050565b600060208284031215613d0e57613d0d613a5c565b5b6000613d1c84828501613ce3565b91505092915050565b60008115159050919050565b613d3a81613d25565b82525050565b6000602082019050613d556000830184613d31565b92915050565b600080600060608486031215613d7457613d73613a5c565b5b6000613d8286828701613a87565b9350506020613d9386828701613a87565b9250506040613da486828701613b7f565b9150509250925092565b600063ffffffff82169050919050565b613dc781613dae565b8114613dd257600080fd5b50565b600081359050613de481613dbe565b92915050565b60008060408385031215613e0157613e00613a5c565b5b6000613e0f85828601613a87565b9250506020613e2085828601613dd5565b9150509250929050565b600080fd5b60008083601f840112613e4557613e44613a9c565b5b8235905067ffffffffffffffff811115613e6257613e61613e2a565b5b602083019150836001820283011115613e7e57613e7d613b59565b5b9250929050565b600080600060408486031215613e9e57613e9d613a5c565b5b6000613eac86828701613a87565b935050602084013567ffffffffffffffff811115613ecd57613ecc613a61565b5b613ed986828701613e2f565b92509250509250925092565b60008083601f840112613efb57613efa613a9c565b5b8235905067ffffffffffffffff811115613f1857613f17613e2a565b5b602083019150836020820283011115613f3457613f33613b59565b5b9250929050565b600080600060408486031215613f5457613f53613a5c565b5b6000613f6286828701613a87565b935050602084013567ffffffffffffffff811115613f8357613f82613a61565b5b613f8f86828701613ee5565b92509250509250925092565b600060208284031215613fb157613fb0613a5c565b5b6000613fbf84828501613a87565b91505092915050565b613fd181613a66565b82525050565b6000602082019050613fec6000830184613fc8565b92915050565b6000806040838503121561400957614008613a5c565b5b600061401785828601613a87565b925050602061402885828601613ce3565b9150509250929050565b61403b81613b5e565b82525050565b60006020820190506140566000830184614032565b92915050565b600081519050919050565b600082825260208201905092915050565b60005b8381101561409657808201518184015260208101905061407b565b60008484015250505050565b60006140ad8261405c565b6140b78185614067565b93506140c7818560208601614078565b6140d081613aa1565b840191505092915050565b6140e481613dae565b82525050565b6140f381613cba565b82525050565b6000610120820190508181036000830152614114818c6140a2565b9050614123602083018b6140db565b614130604083018a6140db565b61413d60608301896140db565b61414a6080830188613fc8565b61415760a0830187613fc8565b61416460c08301866140ea565b61417160e08301856140ea565b61417f610100830184613fc8565b9a9950505050505050505050565b600080604083850312156141a4576141a3613a5c565b5b60006141b285828601613a87565b92505060206141c385828601613a87565b9150509250929050565b6000806000606084860312156141e6576141e5613a5c565b5b60006141f486828701613a87565b935050602061420586828701613ce3565b925050604061421686828701613a87565b9150509250925092565b60006040820190506142356000830185613fc8565b6142426020830184613fc8565b9392505050565b6000819050919050565b600061426e61426961426484613c9a565b614249565b613c9a565b9050919050565b600061428082614253565b9050919050565b600061429282614275565b9050919050565b6142a281614287565b82525050565b600060c0820190506142bd6000830189614299565b6142ca6020830188614299565b6142d76040830187613d31565b6142e46060830186613fc8565b6142f16080830185613fc8565b6142fe60a0830184613d31565b979650505050505050565b6000806000806080858703121561432357614322613a5c565b5b600061433187828801613b7f565b945050602085013567ffffffffffffffff81111561435257614351613a61565b5b61435e87828801613bfd565b935050604061436f87828801613ce3565b925050606061438087828801613a87565b91505092959194509250565b61439581613d25565b81146143a057600080fd5b50565b6000813590506143b28161438c565b92915050565b600080604083850312156143cf576143ce613a5c565b5b60006143dd85828601613a87565b92505060206143ee858286016143a3565b9150509250929050565b600061440382613cba565b9050919050565b614413816143f8565b811461441e57600080fd5b50565b6000813590506144308161440a565b92915050565b60008060008060008060008060008060006101408c8e03121561445c5761445b613a5c565b5b60008c013567ffffffffffffffff81111561447a57614479613a61565b5b6144868e828f01613e2f565b9b509b505060206144998e828f01614421565b99505060406144aa8e828f01614421565b98505060606144bb8e828f01613dd5565b97505060806144cc8e828f01613dd5565b96505060a06144dd8e828f01613a87565b95505060c06144ee8e828f01613ce3565b94505060e06144ff8e828f01613ce3565b9350506101006145118e828f01613a87565b9250506101206145238e828f01613a87565b9150509295989b509295989b9093969950565b7f4e487b7100000000000000000000000000000000000000000000000000000000600052603260045260246000fd5b7f4e487b7100000000000000000000000000000000000000000000000000000000600052602260045260246000fd5b600060028204905060018216806145ac57607f821691505b6020821081036145bf576145be614565565b5b50919050565b7f4c61756e63687061643a20496e76616c696420636861696e0000000000000000600082015250565b60006145fb601883614067565b9150614606826145c5565b602082019050919050565b6000602082019050818103600083015261462a816145ee565b9050919050565b7f4c61756e63687061643a20496e76616c69642070726f6f660000000000000000600082015250565b6000614667601883614067565b915061467282614631565b602082019050919050565b600060208201905081810360008301526146968161465a565b9050919050565b7f4c61756e63687061643a204e6f74206163746976650000000000000000000000600082015250565b60006146d3601583614067565b91506146de8261469d565b602082019050919050565b60006020820190508181036000830152614702816146c6565b9050919050565b7f4c61756e63687061643a20416c72656164792065786368616e67656400000000600082015250565b600061473f601c83614067565b915061474a82614709565b602082019050919050565b6000602082019050818103600083015261476e81614732565b9050919050565b7f4e487b7100000000000000000000000000000000000000000000000000000000600052601260045260246000fd5b7f4e487b7100000000000000000000000000000000000000000000000000000000600052601160045260246000fd5b60006147de82613a66565b91506147e983613a66565b9250826147f9576147f8614775565b5b828204905092915050565b600061480f82613a66565b915061481a83613a66565b925082820261482881613a66565b9150828204841483151761483f5761483e6147a4565b5b5092915050565b600060808201905061485b60008301876140ea565b6148686020830186613fc8565b6148756040830185613fc8565b6148826060830184613fc8565b95945050505050565b7f4c61756e63687061643a2063616c6c6572206973206e6f742061206c61756e6360008201527f687061642061646d696e6973747261746f720000000000000000000000000000602082015250565b60006148e7603283614067565b91506148f28261488b565b604082019050919050565b60006020820190508181036000830152614916816148da565b9050919050565b7f4c61756e63687061643a20726f6f7420616c7265616479207365740000000000600082015250565b6000614953601b83614067565b915061495e8261491d565b602082019050919050565b6000602082019050818103600083015261498281614946565b9050919050565b7f4c61756e63687061643a20746f74616c506f696e747320616c7265616479207360008201527f6574000000000000000000000000000000000000000000000000000000000000602082015250565b60006149e5602283614067565b91506149f082614989565b604082019050919050565b60006020820190508181036000830152614a14816149d8565b9050919050565b7f4c61756e63687061643a20746f74616c506f696e7473206e6f74207365740000600082015250565b6000614a51601e83614067565b9150614a5c82614a1b565b602082019050919050565b60006020820190508181036000830152614a8081614a44565b9050919050565b7f4c61756e63687061643a2074696d65206e6f74206368616e6765640000000000600082015250565b6000614abd601b83614067565b9150614ac882614a87565b602082019050919050565b60006020820190508181036000830152614aec81614ab0565b9050919050565b7f4c61756e63687061643a20696e76616c69642074696d65000000000000000000600082015250565b6000614b29601783614067565b9150614b3482614af3565b602082019050919050565b60006020820190508181036000830152614b5881614b1c565b9050919050565b600081905092915050565b82818337600083830152505050565b6000614b858385614b5f565b9350614b92838584614b6a565b82840190509392505050565b6000614bab828486614b79565b91508190509392505050565b60008190508160005260206000209050919050565b60008154614bd981614594565b614be38186614b5f565b94506001821660008114614bfe5760018114614c1357614c46565b60ff1983168652811515820286019350614c46565b614c1c85614bb7565b60005b83811015614c3e57815481890152600182019150602081019050614c1f565b838801955050505b50505092915050565b6000614c5b8284614bcc565b915081905092915050565b7f4c61756e63687061643a206e616d65206e6f74206368616e6765640000000000600082015250565b6000614c9c601b83614067565b9150614ca782614c66565b602082019050919050565b60006020820190508181036000830152614ccb81614c8f565b9050919050565b7f4c61756e63687061643a20696e76616c6964206e616d65000000000000000000600082015250565b6000614d08601783614067565b9150614d1382614cd2565b602082019050919050565b60006020820190508181036000830152614d3781614cfb565b9050919050565b600082905092915050565b60006020601f8301049050919050565b600082821b905092915050565b600060088302614d967fffffffffffffffffffffffffffffffffffffffffffffffffffffffffffffffff82614d59565b614da08683614d59565b95508019841693508086168417925050509392505050565b6000614dd3614dce614dc984613a66565b614249565b613a66565b9050919050565b6000819050919050565b614ded83614db8565b614e01614df982614dda565b848454614d66565b825550505050565b600090565b614e16614e09565b614e21818484614de4565b505050565b5b81811015614e4557614e3a600082614e0e565b600181019050614e27565b5050565b601f821115614e8a57614e5b81614bb7565b614e6484614d49565b81016020851015614e73578190505b614e87614e7f85614d49565b830182614e26565b50505b505050565b600082821c905092915050565b6000614ead60001984600802614e8f565b1980831691505092915050565b6000614ec68383614e9c565b9150826002028217905092915050565b614ee08383614d3e565b67ffffffffffffffff811115614ef957614ef8613ab2565b5b614f038254614594565b614f0e828285614e49565b6000601f831160018114614f3d5760008415614f2b578287013590505b614f358582614eba565b865550614f9d565b601f198416614f4b86614bb7565b60005b82811015614f7357848901358255600182019150602085019450602081019050614f4e565b86831015614f905784890135614f8c601f891682614e9c565b8355505b6001600288020188555050505b50505050505050565b7f4c61756e63687061643a20496e76616c69642061646472657373000000000000600082015250565b6000614fdc601a83614067565b9150614fe782614fa6565b602082019050919050565b6000602082019050818103600083015261500b81614fcf565b9050919050565b7f4c61756e63687061643a2063616c6c6572206973206e6f74206120776869746560008201527f6c69737465642061646472657373000000000000000000000000000000000000602082015250565b600061506e602e83614067565b915061507982615012565b604082019050919050565b6000602082019050818103600083015261509d81615061565b9050919050565b7f4c61756e63687061643a20696e76616c69642061646472657373000000000000600082015250565b60006150da601a83614067565b91506150e5826150a4565b602082019050919050565b60006020820190508181036000830152615109816150cd565b9050919050565b600061511b82613a66565b91507fffffffffffffffffffffffffffffffffffffffffffffffffffffffffffffffff820361514d5761514c6147a4565b5b600182019050919050565b7f4c61756e63687061643a207374616b696e672061646472657373206e6f74206360008201527f68616e6765640000000000000000000000000000000000000000000000000000602082015250565b60006151b4602683614067565b91506151bf82615158565b604082019050919050565b600060208201905081810360008301526151e3816151a7565b9050919050565b7f4c61756e63687061643a20496e73756666696369656e7420616d6f756e740000600082015250565b6000615220601e83614067565b915061522b826151ea565b602082019050919050565b6000602082019050818103600083015261524f81615213565b9050919050565b600060208201905061526b60008301846140ea565b92915050565b60008151905061528081613a70565b92915050565b60006020828403121561529c5761529b613a5c565b5b60006152aa84828501615271565b91505092915050565b7f4c61756e63687061643a20496e73756666696369656e742062616c616e636500600082015250565b60006152e9601f83614067565b91506152f4826152b3565b602082019050919050565b60006020820190508181036000830152615318816152dc565b9050919050565b600060408201905061533460008301856140ea565b61534160208301846140ea565b9392505050565b7f4c61756e63687061643a20496e73756666696369656e7420616c6c6f77616e6360008201527f6500000000000000000000000000000000000000000000000000000000000000602082015250565b60006153a4602183614067565b91506153af82615348565b604082019050919050565b600060208201905081810360008301526153d381615397565b9050919050565b60006153e582613a66565b91506153f083613a66565b9250828201905080821115615408576154076147a4565b5b92915050565b7f4e6f207374616b65640000000000000000000000000000000000000000000000600082015250565b6000615444600983614067565b915061544f8261540e565b602082019050919050565b6000602082019050818103600083015261547381615437565b9050919050565b600061548582613a66565b915061549083613a66565b92508282039050818111156154a8576154a76147a4565b5b92915050565b7f4c61756e63687061643a20496e73756666696369656e742074696d6500000000600082015250565b60006154e4601c83614067565b91506154ef826154ae565b602082019050919050565b60006020820190508181036000830152615513816154d7565b9050919050565b7f4c61756e63687061643a206c61756e636865642061646472657373206e6f742060008201527f6368616e67656400000000000000000000000000000000000000000000000000602082015250565b6000615576602783614067565b91506155818261551a565b604082019050919050565b600060208201905081810360008301526155a581615569565b9050919050565b60006040820190506155c160008301856140ea565b6155ce6020830184613fc8565b9392505050565b6000819050919050565b6155f06155eb82613b5e565b6155d5565b82525050565b600061560282846155df565b60208201915081905092915050565b7f4c61756e63687061643a20737461747573206e6f74206368616e676564000000600082015250565b6000615647601d83614067565b915061565282615611565b602082019050919050565b600060208201905081810360008301526156768161563a565b9050919050565b6156868261405c565b67ffffffffffffffff81111561569f5761569e613ab2565b5b6156a98254614594565b6156b4828285614e49565b600060209050601f8311600181146156e757600084156156d5578287015190505b6156df8582614eba565b865550615747565b601f1984166156f586614bb7565b60005b8281101561571d578489015182556001820191506020850194506020810190506156f8565b8683101561573a5784890151615736601f891682614e9c565b8355505b6001600288020188555050505b505050505050565b600061575b8385614067565b9350615768838584614b6a565b61577183613aa1565b840190509392505050565b6000602082019050818103600083015261579781848661574f565b90509392505050565b60006060820190506157b560008301866140ea565b6157c260208301856140ea565b6157cf6040830184613fc8565b949350505050565b6000815190506157e68161438c565b92915050565b60006020828403121561580257615801613a5c565b5b6000615810848285016157d7565b91505092915050565b600081519050919050565b600081905092915050565b600061583a82615819565b6158448185615824565b9350615854818560208601614078565b80840191505092915050565b600061586c828461582f565b91508190509291505056fea264697066735822122049c2f883b2cb02965142ae99e230c685527e8d181c9c141be1630befe6d6109a64736f6c63430008140033",
  "linkReferences": {},
  "deployedLinkReferences": {}
}